:020000040800F2
:1000000000000320894D0008CD210008CF21000801
:10001000D1210008D3210008D521000800000000EC
:10002000000000000000000000000000B1EE000829
:10003000D72100080000000041EF0008B9CB0008FC
:10004000E14D0008E14D0008E14D0008D92100080C
:10005000E14D0008E14D0008E14D0008E14D0008C8
:10006000E14D0008E14D0008E14D0008E14D0008B8
:10007000E14D0008E14D0008E14D0008E14D0008A8
:10008000E14D0008E14D0008E14D0008E14D000898
:10009000E14D0008E14D0008E14D0008E14D000888
:1000A000E14D0008DD210008E14D0008E14D0008A8
:1000B000E9210008E14D0008E14D0008E14D00088C
:1000C000E14D0008E14D0008E14D0008E14D000858
:1000D000E14D0008E14D0008E14D0008E14D000848
:1000E0000D220008E14D0008E14D0008E14D000837
:1000F000F5210008F9210008FD210008E14D000864
:10010000E14D0008E14D0008E14D0008E14D000817
:10011000E14D0008E14D0008E14D0008E14D000807
:10012000E14D0008E14D000801220008E14D000802
:0C013000E14D0008E14D0008E14D000821
:1001400010B5054C237833B9044B13B10448AFF311
:1001500000800123237010BDE01800200000000083
:10016000780A010808B5034B1BB103490348AFF3F4
:10017000008008BD00000000E4180020780A010893
:10018000034613F8012B002AFBD1181A01387047D7
:1001900001F0FF01102A2BDB10F0070F08D010F838
:1001A000013B013A8B422DD010F0070F42B3F6D13C
:1001B000F0B441EA012141EA014122F007047FF055
:1001C00000070023F0E80256083C85EA010586EAAC
:1001D000010685FA47F5A3FA87F586FA47F6A5FAE8
:1001E00087F68EB9EED1F0BC01F0FF0102F00702F4
:1001F00032B110F8013B013A83EA010313B1F8D19F
:100200000020704701387047002D06BF354603387F
:10021000073815F0010F07D1013015F4807F02BFB8
:10022000013015F4C03F0130F0BC0138704700BF09
:1002300081F0004102E000BF83F0004330B54FEA97
:1002400041044FEA430594EA050F08BF90EA020F04
:100250001FBF54EA000C55EA020C7FEA645C7FEA97
:10026000655C00F0E2804FEA5454D4EB5555B8BFBA
:100270006D420CDD2C4480EA020281EA030382EA2B
:10028000000083EA010180EA020281EA0303362DBD
:1002900088BF30BD11F0004F4FEA01314FF4801C90
:1002A0004CEA113102D0404261EB410113F0004FA2
:1002B0004FEA03334CEA133302D0524263EB430359
:1002C00094EA050F00F0A780A4F10104D5F1200EF7
:1002D0000DDB02FA0EFC22FA05F2801841F1000152
:1002E00003FA0EF2801843FA05F359410EE0A5F126
:1002F00020050EF1200E012A03FA0EFC28BF4CF057
:10030000020C43FA05F3C01851EBE37101F000450C
:1003100007D54FF0000EDCF1000C7EEB00006EEB19
:100320000101B1F5801F1BD3B1F5001F0CD34908A3
:100330005FEA30004FEA3C0C04F101044FEA4452FA
:1003400012F5800F80F09A80BCF1004F08BF5FEA81
:10035000500C50F1000041EB045141EA050130BD61
:100360005FEA4C0C404141EB0101013C28BFB1F573
:10037000801FE9D291F0000F04BF01460020B1FABE
:1003800081F308BF2033A3F10B03B3F120020CDA91
:100390000C3208DD02F1140CC2F10C0201FA0CF06F
:1003A00021FA02F10CE002F11402D8BFC2F1200CD4
:1003B00001FA02F120FA0CFCDCBF41EA0C0190408A
:1003C000E41AA2BF01EB0451294330BD6FEA0404D3
:1003D0001F3C1CDA0C340EDC04F11404C4F12002BE
:1003E00020FA04F001FA02F340EA030021FA04F3D0
:1003F00045EA030130BDC4F10C04C4F1200220FA27
:1004000002F001FA04F340EA0300294630BD21FA64
:1004100004F0294630BD94F0000F83F4801306BF2A
:1004200081F480110134013D4EE77FEA645C18BF1E
:100430007FEA655C29D094EA050F08BF90EA020FB5
:1004400005D054EA000C04BF1946104630BD91EAAD
:10045000030F1EBF0021002030BD5FEA545C05D1B0
:100460004000494128BF41F0004130BD14F58004EF
:100470003CBF01F5801130BD01F0004545F0FE4163
:1004800041F470014FF0000030BD7FEA645C1ABF98
:10049000194610467FEA655C1CBF0B46024650EACF
:1004A000013406BF52EA033591EA030F41F40021FB
:1004B00030BD00BF90F0000F04BF0021704730B581
:1004C0004FF4806404F132044FF000054FF0000156
:1004D00050E700BF90F0000F04BF0021704730B517
:1004E0004FF4806404F1320410F0004548BF4042EC
:1004F0004FF000013EE700BF42004FEAE2014FEA41
:1005000031014FEA02701FBF12F07F4393F07F4F1B
:1005100081F06051704732F07F4208BF704793F01E
:100520007F4F04BF41F40021704730B54FF4607431
:1005300001F0004521F000411CE700BF50EA010234
:1005400008BF704730B54FF000050AE050EA0102DD
:1005500008BF704730B511F0004502D5404261EB4D
:1005600041014FF4806404F132045FEA915C3FF48E
:10057000D8AE4FF003025FEADC0C18BF03325FEA2B
:10058000DC0C18BF033202EBDC02C2F1200300FADC
:1005900003FC20FA02F001FA03FE40EA0E0021FA01
:1005A00002F11444BDE600BF53B94AB9002908BF9F
:1005B00000281CBF4FF0FF314FF0FF3000F070B942
:1005C000ADF1080C6DE904CE00F006F8DDF804E0AA
:1005D000DDE9022304B070472DE9F047089E0D467F
:1005E00004460F46002B4AD18A42944665D9B2FA96
:1005F00082F343B102FA03FCC3F120029F4020FAC8
:1006000002F217439C404FEA1C4E1FFA8CF5B7FBD1
:10061000FEF1220C0EFB117742EA074201FB05F0C6
:1006200090420AD91CEB020201F1FF3780F01C81D5
:10063000904240F2198102396244121AA4B2B2FB0C
:10064000FEF00EFB102244EA024400FB05F5A54231
:100650000AD91CEB040400F1FF3280F00781A542A7
:1006600040F204816444023840EA0140641B0021E6
:100670001EB1DC400023C6E90043BDE8F0878B4291
:1006800008D9002E00F0ED800021C6E900050846DB
:10069000BDE8F087B3FA83F1002949D1AB4202D318
:1006A000824200F2F880841A65EB030201201746AB
:1006B000002EE2D0C6E90047DFE702B9FFDEB2FA5A
:1006C00082F3002B40F090808A1A4FEA1C471FFAF1
:1006D0008CFE0121B2FBF7F507FB1520220C42EA44
:1006E00000420EFB05F0904208D91CEB020205F116
:1006F000FF3802D2904200F2CB804546121AA4B2D3
:10070000B2FBF7F007FB102244EA02440EFB00FEA6
:10071000A64508D91CEB040400F1FF3202D2A6451D
:1007200000F2BB801046A4EB0E0440EA05409FE7B0
:10073000C1F120078B4022FA07FC4CEA030C05FAB2
:1007400001F420FA07F3FD404FEA1C492343B5FBAF
:10075000F9F81FFA8CFE09FB18551C0C44EA0544F5
:1007600008FB0EF5A54202FA01F200FA01F00BD9DE
:100770001CEB040408F1FF3A80F08880A54240F2A7
:100780008580A8F102086444641B9DB2B4FBF9F3B0
:1007900009FB134445EA044403FB0EFEA64508D9B1
:1007A0001CEB040403F1FF356CD2A6456AD9023B69
:1007B000644443EA0843A3FB0295A4EB0E04AC4255
:1007C000C846AE4656D353D056B1B0EB080264EBE0
:1007D0000E0404FA07F7CA40CC401743C6E9007478
:1007E00018460021BDE8F087C3F1200102FA03FC9E
:1007F00020FA01F225FA01F19D402A434FEA1C47F5
:100800001FFA8CFEB1FBF7F007FB1015110C41EA43
:10081000054100FB0EF58D4204FA03F408D91CEBE8
:10082000010100F1FF382FD28D422DD902386144E9
:10083000491B92B2B1FBF7F507FB151142EA0142E1
:1008400005FB0EF1914208D91CEB020205F1FF38BD
:1008500016D2914214D9023D6244521A45EA00412F
:1008600038E73146304608E73946E6E61046FBE60B
:100870004845A9D2B9EB020865EB0C0E013BA3E792
:100880004546EAE72B4694E74046D1E7D0467BE76A
:10089000023D624432E708460AE76444023842E710
:1008A000704700BF30B502F007050124AC40058851
:1008B0008068D20805FB0211012B425C06BF22436F
:1008C000D2B2A243425430BD2DE9F04F85B01F464D
:1008D000BDF838809DF83C307D1AA8EB0206002D4B
:1008E000B8BF6D428F428CBF4FF0010A4FF0FF3A04
:1008F000002EB8BF7642C6F1000B90458CBF4FF07A
:1009000001094FF0FF39AC1BCDE902120190FFF74E
:10091000C9FF02990198039AB94201D142450ED00C
:10092000BBEB440F4FEA440C05DC51446545A4EB96
:10093000060489B2E8DB4A442C4492B2E4E705B0ED
:10094000BDE8F08F30B4C58884882A44214492B22F
:1009500030BC89B2FFF7A6BF2DE9F34781469DF869
:100960002C8020B3848821448DB201888D421ED210
:10097000C7883A4496B24288964218D223449BB222
:100980009D4214D8BDF828000744BFB2BE420ED81D
:100990008B4224BF01F1FF318BB2974224BF02F199
:1009A000FF3297B24FF0000A5C1BA24502DD02B095
:1009B000BDE8F08705EB0A039BB2CDE9007832462B
:1009C000194648460AF1010AFFF77EFF1FFA8AFA24
:1009D000EBE72DE9F74F0646BDF830C09DF834909F
:1009E00000284ED08788C58839441FFA81F80188CD
:1009F000884546D22A4494B24288944241D23B442C
:100A00009FB2B8453DD86544ADB2AC4239D88F42AB
:100A100023BF01F1FF318FB24FF0010A4FF0000AFE
:100A2000954223BF02F1FF3295B24FF0010B4FF018
:100A3000000BCDE900493B4622464146FFF744FF03
:100A4000BBF1000F07D1CDE900593B462A4641468C
:100A50003046FFF739FFCDE900594346224641466B
:100A60003046FFF731FFBAF1000F0AD13B4622466C
:100A700039463046CDE90C5903B0BDE8F04FFFF7D9
:100A800023BF03B0BDE8F08F2DE9F04F89B0CDE969
:100A90000012129C9DF85090002864D0002C62D067
:100AA000139A002A5FD062780A4401888A425ADA8F
:100AB000019922780A4441888A4254DA139A1278BA
:100AC000002A50D0B9F1000F2AD10D2A4BD00A2AA2
:100AD00049D04F46C8464D46BAB213998E5C6278EB
:100AE0000D2E26D020D8002E6ED00A2E21D0009AAE
:100AF000AA1892B20292019A424492B20392E27808
:100B0000B24202D82279B24200D266794FF0000A8E
:100B100094F800E01FFA8AF2964527D8627805E03B
:100B20000027B8463D46D7E7202EE0D12A4495B2AB
:100B300007E0B9F1000F47D0227842441FFA82F84B
:100B40000025002200996678691831440688B14270
:100B500009DA01992678414431444688B14202DAE3
:100B60000137002AB8D009B0BDE8F08F94F803C06F
:100B7000A168A6EB0C0C0EFB0C114FF0000B11F84A
:100B80000A10049103990A4492B294F801C01FFA22
:100B90008BFEF44502D80AF1010AB9E70499CBF1BA
:100BA000070C41FA0CFC1CF0010F0AD002990590C9
:100BB000714489B2CDE90623FFF7C4FEDDE90623BF
:100BC00005980BF1010BE0E70122BBE730B50346C6
:100BD0000846DC895A889D89197D22441C8885B085
:100BE0002C440A442144002402941C6B01945C6B45
:100BF0000094DB7D92B289B2FFF746FF05B030BDAD
:100C000030B4426B038A8189047DB0F938501944AD
:100C10005378127801EB440105FB0311C389458A1F
:100C20002B4403EB44031A44438992B2934289B2A2
:100C300002D103898B4202D030BC00F036B930BCFF
:100C4000704790F83A300BB1FFF7DABF704710B534
:100C5000044668B161B101630846FFF791FA94F860
:100C60003A30208723B12046BDE81040FFF7C8BFC7
:100C700010BD000010B50446A0B100F05FF80A4AAC
:100C8000E2610A4A22620123094A2376204662630E
:100C900084F83A300749FFF7DAFF2046BDE81040F4
:100CA000FFF7AEBF10BD00BFCD0B0008430C00081E
:100CB000A80200201D12010830B129B190F83A3085
:100CC00041630BB1FFF79CBF704713B5024608465E
:100CD00092F8304074B11389118863436424B3FBE4
:100CE000F4F3D47D0194D48800940B4452889BB2D1
:100CF000FFF732FE02B010BD10B5044640B100F05F
:100D00001DF803232376034BE361002384F830307E
:100D100010BD00BFCB0C000810B402880489224427
:100D20008280448942882244C28021B1036A13B17F
:100D30005DF8044B18475DF8044B704710B5044646
:100D400058B1302200210FF03BF84FF00212C4E9F5
:100D500003220123A3752375637610BD2DE9F341AA
:100D60000D46044600284CD000294AD0437E002B73
:100D700047D0C37E23BB837E4BB9837D0193C38859
:100D800000938388428801882846FFF7E5FD012605
:100D9000237DB3421CD2A66A96B12388B5F804809D
:100DA000EF884344AB8063883B44EB803046294660
:100DB000FFF7D4FFF66A002EF8D1A5F80480EF8083
:100DC000E369F3B12946204602B0BDE8F041184777
:100DD000E07DA388628821880190E0880130801B33
:100DE0000133013A01399B1B3244314480B20090F7
:100DF0009BB292B289B228460136FFF7EAFDF6B2FD
:100E0000C6E702B0BDE8F08130B540B139B14A6AF9
:100E10002AB9836A23B952B98162CB62486230BD74
:100E20004D7D5C7DA542F6D81A46DB6AF2E7D162B9
:100E3000F3E720B1018042800021FFF76DBF7047CA
:100E400070B1426A62B11189038942888B423DBF09
:100E5000C91A01EBD171C1F34F010021FFF7E9BFBE
:100E6000704770B1426A62B15289438901889342E6
:100E70003DBFD21A02EBD272C2F34F020022FFF73B
:100E8000D8BF704710B5044640B1436A33B1FFF78D
:100E9000D7FF2046BDE81040FFF7E3BF10BD00B10B
:100EA0000088704700B14088704720B101814281BD
:100EB0000121FFF731BF704700B10089704700B1D1
:100EC0004089704718B101750121FFF725BF7047B0
:100ED00000B14176704738B50D4610B1846AC175CE
:100EE00004B938BD20462946FFF7F5FFE46AF7E765
:100EF00038B50D4610B1846A817504B938BD2046F5
:100F00002946FFF7F5FFE46AF7E7000070B50C4BE0
:100F100088B001AA03F118061546186859681446E6
:100F200003C40833B3422246F7D119889B78218045
:100F3000A3700BF0D1FD28460BF0BCFA08B070BDD1
:100F4000900A010808B54FF0FF32002101200BF094
:100F5000EEFE0BF03BFCF6E730B54368B3F80B3020
:100F6000B3F5124F89B0044626D168460BF0BEFA9D
:100F7000102200210DEB02000EF022FF63685D7B62
:100F8000E5B9FFF7C3FF0F230F4A8DF810307F2319
:100F90008DF8123013681B0CADF81C30136804A8D0
:100FA000C3F30B03ADF81E300BF092FA0EF05CFAAF
:100FB000294601200EF0C4FC09B030BD012D04BF4C
:100FC00000232370F8E700BF002004E010B10128DF
:100FD00006D07047044B4FF0FF3118680BF037BF55
:100FE000014B18680BF055BFFC18002008B50B4BDF
:100FF0004FF400421A6100200BF092FD68B14FF0EF
:10100000B042074B8179C2F89C30D2F89C3023F46F
:101010007C5343EA0123C2F89C3008BD00400058CD
:10102000FECAFECA034AD2F8903043F05003C2F819
:10103000903070470008005810B588B0FFF7F2FFF5
:10104000274B284CCA225A6253225A629A6822F0CD
:1010500007029A60FF225A624FF0B042936843F44D
:10106000004393600EF062FC1F4A2049D2F88030A2
:1010700023F0070343F00403C2F88030002000F09F
:101080003DFB0BF03BFC00200BF0A9FE184B0022AF
:101090001860114601200BF01AFF164B164A186013
:1010A000002116480BF0C2FD154B009469461860EC
:1010B000144B154801930BF05FFB04F58673029304
:1010C00004F50673039302A840F23C5304F54974F7
:1010D000059304940BF0D2FC0BF00EFC08B010BD8D
:1010E00000280040F8010320000400583C1A0020AA
:1010F000FC18002000190020500C0108450F0008C2
:1011000004190020CD0F0008590F000870B50446DF
:1011100006F002FF631C054602D006F009FF0444F6
:10112000064E04E0336923F00403336130BF06F058
:10113000F3FE431BA342F5D370BD00BF00ED00E0FA
:10114000024B012118680BF0B8BD00BF0419002044
:10115000014B18680BF030BF00190020024B4FF014
:10116000FF3118680BF0FDBE0019002008B5012002
:101170000BF029FEFBE7000008B5044A04480021F3
:101180000BF054FD034B186008BD00BF800C010834
:101190006D110008081900204FF0B04307B59A6C94
:1011A00042F004029A649A6C02F004020192019ADD
:1011B0009A6C42F002029A649B6C03F00203009363
:1011C000002205213A20009B06F0CAFE3A2003B017
:1011D0005DF804EB06F0F6BE4FF0B04382B0DA6C77
:1011E0000243DA64DB6C03400193019B02B0704759
:1011F0002DE9F04F87B01422002101A80EF0E0FD88
:101200000120FFF7E9FF0420FFF7E6FF0220FFF7C8
:10121000E3FF0820FFF7E0FFDFF8D4B2DFF8D48265
:10122000B24FDFF8D4A2DFF8D4921020FFF7D4FF3A
:101230008020FFF7D1FF01215846002207F032F944
:1012400058460122022107F02DF9404600224FF4B2
:10125000407107F027F9384600224FF4807107F0FB
:1012600021F9504600220421002407F01BF9252211
:10127000032301A94FF09040CDE90123039406F028
:10128000DDFF03233A21CDE90113404601A9039470
:1012900006F0D4FF40F6044301A940460225CDE9FB
:1012A0000134039406F0CAFF4FF40073CDE9013511
:1012B00001A90823484601260593CDE9034406F019
:1012C000BDFF082301A940460593CDE90165CDE99D
:1012D000034406F0B3FF4FF480701223CDE90103FD
:1012E00004230DEB030148460593CDE9034406F0C2
:1012F000A5FF08234FF4815201A948460593CDE983
:101300000125CDE9034406F099FF4FF4004201A9FD
:101310004FF09040CDE90125CDE90344059606F054
:101320008DFF4FF4806C1223CDE901C304230DEB34
:1013300003014FF090400593CDE9034406F07EFF92
:101340004FF4C0520A2301A94FF09040CDE9012586
:101350000593CDE9034406F071FF0522032301A99B
:1013600038460592CDE90135CDE9034406F066FF24
:10137000C021CDE90115092301A940460593CDE916
:10138000034406F05BFF05224FF4404301A94846A1
:101390000592CDE90135CDE9034406F04FFF122354
:1013A00001A95046CDE90134039406F047FF4FF4FC
:1013B000806301A94846CDE90135CDE9034405968E
:1013C00006F03CFF04230DEB03014846CDE9013450
:1013D0004FF44079039406F031FF032301A94FF045
:1013E00090400593CDE90195CDE9034406F026FF31
:1013F0004023CDE9013501A908234FF09040059322
:10140000CDE9034406F01AFF0823CDE9013501A90F
:101410000A234FF090400593CDE9034406F00EFFF8
:10142000032301A95846CDE90136CDE9034406F06E
:1014300005FF4FF4404301A93846CDE90135CDE918
:101440000344059606F0FAFE43F2100301A938465C
:10145000CDE901344FF4881B039406F0EFFE4FF4FE
:10146000017301A93846CDE9013B039406F0E6FE7D
:1014700001A94046CDE90196CDE9034406F0DEFE20
:101480006823CDE9013501A90A2338460593CDE942
:10149000034406F0D3FE082301A95046CDE9013BE1
:1014A000039406F0CBFE4FF4807301A93846CDE9D2
:1014B0000136CDE9034406F0C1FE4FF44063CDE9A7
:1014C000013501A9092338460593CDE9034406F007
:1014D000B5FE04230DEB03015046CDE90136CDE9FD
:1014E000034406F0ABFE07B0BDE8F08F000C0048E7
:1014F000001C004800080048001000480004004894
:10150000054A906A936A80B29BB2984200D17047B4
:10151000916A18468BB2F8E700280040F0B51B4AE4
:10152000137883421A4B17D114781A4DE4B22C70F9
:10153000182404FB0034647DE4B21470182404FB06
:101540000030012303731378062B04D119B9124B11
:101550004FF0FF321A60F0BD182707FB0034267DDC
:1015600094F815E094F815C007FB06365FFA8CFC7A
:10157000BEF1060F86F815C018BF267D5FFA8EF5FE
:101580001EBF07FB0534F6B22675D7E70D190020FC
:101590001C190020101900201419002010B50D4C42
:1015A0002368013313D0FFF7ABFF236883423DBFAD
:1015B000094B22681B88236838BF9B18181A074BF1
:1015C0001B785843064B1B78D84080B210BD0020D2
:1015D000FBE700BF14190020181900200C19002087
:1015E0001A1900203C4B2DE9F0413C4E9B683768AE
:1015F00013F4806F03D0FB6813F0040FFAE7BB68A5
:10160000DFF8F48023F48063BB60354B1B7818222D
:10161000DDB202FB03839C68FFF7C0FFA042314BA1
:1016200006D901221A70002418214FF0000C1CE08A
:101630002D490A8810FA82F2A24239BF0C88002292
:10164000241A012234BFA4B2A4B21A70ECE701FB41
:10165000058301FB05859A68904297BF9A68C3F895
:1016600008C0121A9A606D7DEDB2062DEFD144B913
:10167000FFF746FF1D4BBDE8F0411860032006F060
:10168000C1BC012C03D11A4B1B78012B01D0013CAA
:10169000A4B2FB685B07FCD5FB68DBB263F4906324
:1016A000FB60144B4FF40022DA60032006F0B8FC14
:1016B000094A53691B0C1B0423435361FFF720FFA6
:1016C0000A4B32681860936843F480639360AFF309
:1016D0000080BDE8F08100BF002800403C1A0020D7
:1016E0000D1900201B1900200E19002014190020CC
:1016F0001A190020000800581C19002070B5404C31
:101700002168CA234B6253234B623E4B9A6842F0D6
:1017100020029A609D683C4A05F00705C5F1040562
:10172000EDB215701A694FF4FE0602F4FE0296FA45
:10173000A6F6B6FA86F6F2400132344ED2B23270D4
:101740001B69334EC3F30E0301333380013B534314
:10175000A3F5A073EB404FF6FE7293422D4A8CBF67
:101760004FF6FF739BB213802B4A136843F4002398
:101770001360D2F8803043F40023C2F88030002890
:1017800036D1264B01251D70254B4FF0FF351D60CE
:10179000244B187383F8240083F83C0083F854002A
:1017A00083F86C0083F884001F4B062018708B6848
:1017B00023F480638B60CB68DBB263F49063CB600F
:1017C0004FF40023D360032006F02AFC22689368BC
:1017D00043F4804393602368FF225A62032000226F
:1017E000062106F0BDFBBDE87040032006F0EABB11
:1017F000CB685B05EFD5032006F004FCEBE700BFE8
:101800003C1A0020002800401A1900200C19002062
:10181000181900200E190020000800581B1900207C
:10182000141900201C1900200D1900202DE9F04783
:101830000646EFF3108772B6DFF8409000254FF0B0
:10184000180A0AFB05945FFA85FE94F80CC00CF0A8
:10185000FF00BCF1000F0AD10125257387F3108822
:1018600026616273236081F800E0BDE8F0870135EE
:10187000062DE6D187F310880120F6E71C19002019
:1018800070B50446EFF3108672B6234D032006F0C0
:10189000A7FB2B68CA225A6253225A621F4B182296
:1018A00002FB04331B7B022B25D100212046FFF7CE
:1018B00035FE1B4B1B78062BDAB225D1194B9A68E3
:1018C0002B6812F4806F03D0DA6812F0040FFAE785
:1018D0009A6822F480629A60DA685207FCD5DA6866
:1018E000D2B262F49062DA600F4B4FF40022DA60F9
:1018F000032006F095FB2B68FF225A62032006F0B6
:1019000061FB86F3108870BD084B1B789342F2D0C0
:10191000FFF768FEEFE700BF3C1A00201C1900200B
:101920000D19002000280040000800581019002060
:101930002DE9F0474F4C182303FB004305461B7B62
:10194000022B0F4601D1FFF79BFFEFF3108672B613
:10195000DFF83091032006F043FBD9F80030CA22AB
:101960004FF0180A5A620AFB054853225A620223B2
:1019700088F80C30C8F80870C8F804703E4F3B78FF
:10198000062BDAB21DD13B783C49DBB20B703C4BE5
:101990003D7088F815204FF0FF321A600020374A5A
:1019A0003B7812789A425ED0FFF71CFED9F80030DF
:1019B000FF225A62032006F005FB86F31088BDE87B
:1019C000F087FFF7EBFDD8F808300344C8F808307B
:1019D000D8F808103B780AFB03439B68994225D34B
:1019E0003A78D3B20AFB0242527DD2B2062A04D020
:1019F0000AFB02429268914214D2182202FB034170
:101A0000497D5FFA81FC06291CBF02FB0C4215755B
:101A1000182202FB054181F815C00B7502FB034338
:101A20005D75BCE70AFB03435A7DDAE73B783A78F9
:101A30009342D9B20AFB03F311D023441A7D5FFA13
:101A400082FC0AFB0242557588F8151088F814C00C
:101A50001D753B78094ADBB213703D709FE788F82B
:101A600015102344F4E7182303FB0544A3681B1A4D
:101A7000A3609BE71C1900200D19002010190020FD
:101A8000141900203C1A0020104700002DE9F84FDF
:101A9000EFF3108572B6294C294923684FF0CA0923
:101AA0004FF05308C3F82490C3F824809A6822F4B6
:101AB00080629A60234A12781820D6B242438F1867
:101AC000387B02282DD1204B51F802B0D7F810A056
:101AD0001B780BB37B7B012BD9B217D13046FFF7B4
:101AE0001DFD85F3108879683046FFF721FF2368D4
:101AF0005A46C3F824903146C3F824805046FFF775
:101B0000C3FF2368FF225A62BDE8F88F85F310886F
:101B10003046FFF7B5FEEAE7FFF764FD85F310886E
:101B2000EFE7DA685207FCD5DA68D2B262F4906265
:101B3000DA60064B4FF40022DA60EFE73C1A00202F
:101B40001C1900200D1900201B1900200008005846
:101B500010B59CB004461422002103A80EF030F901
:101B60005022002108A80EF02BF92268184B9A4247
:101B70002CD10823089308A84FF44013119308F0C0
:101B80000FF808B100F025FA4FF0B0444FF420529E
:101B9000E36C104843F00203E364E36C03F00203D8
:101BA0000293029B1223CDE903230023CDE90533E1
:101BB00003A90423079306F041FBA36D43F400033C
:101BC000A365A36D03F400030193019B1CB010BD3A
:101BD000005C00400004004808B502680A4B9A42C5
:101BE00011D14FF0B0420948936D23F4000393657F
:101BF0004FF4005106F0D8FBBDE8084003484FF40D
:101C0000006106F0D1BB08BD005C00400004004844
:101C1000054808B5054B036007F09AF918B1BDE80F
:101C2000084000F0D6B908BDAC190020000C0058DF
:101C300007B5124B02689A421DD14FF0B0430521FF
:101C40001A6D42F480121A651B6D03F48013019320
:101C500000222C20019B06F083F92C2006F0B2F91B
:101C6000002205212D2006F07BF92D2003B05DF820
:101C700004EB06F0A7B903B05DF804FB000C0058B4
:101C800070470000BFF34F8F0549064BCA6802F446
:101C9000E0621343CB60BFF34F8F00BFFDE700BF8F
:101CA00000ED00E00400FA0510B59AB048220021CA
:101CB00008A80EF085F81C22002101A80EF080F87B
:101CC00007F068F94FF0B0420721D2F8903023F0C6
:101CD000180343F01003C2F89030D2F8003423F414
:101CE000C06343F40073C2F80034D2F8003403F444
:101CF000C0630093009B4FF48033CDE908130124A7
:101D00004FF48073CDE90A4340230C9308A80023C5
:101D1000139307F043FA08B172B6FEE7CDE903006A
:101D2000CDE905006F2202230790214601A8CDE9E5
:101D3000012307F0FDFC08B172B6FEE71AB010BD32
:101D400000B595B000214C2201A80EF039F84FF4EF
:101D5000405300934FF4804102236846CDE91113AC
:101D600007F01EFF08B172B6FEE715B05DF804FB80
:101D700083B506F0AFF8FFF739F9FFF795FFFFF7E6
:101D8000DFFFFFF745FFFFF733FAFFF705FA00F033
:101D900025F900F0A1FB00F01EF900F0BBFA00F0FD
:101DA00005FBFFF76DFF00F017F9002202210F205D
:101DB0000BF0E1FA08B9FFF765FF644E644CDFF8F9
:101DC000F481644F644DDFF8E09164493060206134
:101DD000C8F8040078602860C9F804000BF0E0FE41
:101DE0000022062103200BF0C6FA0028E3D05C494C
:101DF0002060A8600BF0D4FE0022012102200BF02D
:101E0000BAFA0028D7D0574960600BF0C9FE00220B
:101E1000062101200BF0AFFA0028CCD05249A06077
:101E200038600BF0BDFE0022052102200BF0A3FA62
:101E30000028C0D04D49E06068600BF0B1FE002280
:101E4000052103200BF097FA0028B4D04849C9F8BF
:101E50000000E8600BF0A4FE002101200BF0D6FA90
:101E600081460028A7D043490BF09AFE00220421A6
:101E700001200BF080FA40492861C8F8000048466C
:101E80000BF08EFE01200BF0D1FB002893D03B49D4
:101E9000C8F80800B8600BF083FE052300253371F5
:101EA0000223009336493748019533468022B560B6
:101EB0000CF0A4F801287FF47EAF3523009332495B
:101EC0003248019523464FF4B8720CF097F8012878
:101ED0007FF471AF01952C4634252D492D4800958E
:101EE00043464FF480720CF089F801287FF463AF09
:101EF000CDE90054284929483B464FF480720CF044
:101F00007DF801287FF457AF362300932449124B04
:101F1000244801944FF4B8720CF070F801287FF453
:101F20004AAFCDE90054204B204921484FF4B87204
:101F30000CF064F801287FF43EAF0AF04BFEFFF787
:101F40007BF8FFF719F90AF057FEFEE7301A002078
:101F5000E8190020241A0020041A0020A40C01080B
:101F6000AF0C0108BC0C0108C80C0108D40C010816
:101F7000DF0C0108EA0C0108F70C0108050D010847
:101F80000C0D010811660008150D0108595E0008C6
:101F90001D0D010811640008260D0108D964000810
:101FA0002E0D010861630008FC190020370D01089F
:101FB0009D600008181A00200368B3F1804F10B527
:101FC000044601D105F09CFF2046BDE8104003F017
:101FD00027BD72B6FEE77047704700000F48104AF1
:101FE00008B50023C0E900230F2147F6FF72C0E9BE
:101FF0000212C0E906330361436108F035FA08B103
:10200000FFF7E7FF00220548114608F08FFA18B1E4
:10201000BDE80840FFF7DDBF08BD00BF3C1A002047
:102020000028004010B5044696B05022002102A8B6
:102030000DF0C6FE2268154B9A4224D14FF400637E
:10204000029302A84FF48073129307F0A9FD08B120
:10205000FFF7BFFF4FF0B0430320D3F8902042F4C6
:102060000042C3F890209A6D42F480629A659B6D9D
:1020700003F48063019300220521019B05F070FFAA
:10208000032005F09FFF16B010BD00BF00280040E0
:1020900030B5044689B01422002103A80DF090FE4B
:1020A00022681C4B9A4232D14FF0B04302251A6E7F
:1020B00042F480521A661A6E02F480520292029A18
:1020C000DA6C42F00102DA64DA6C02F00102019289
:1020D000019ADA6C42F00202DA64DB6C03F002036C
:1020E0000093009B0524922303A94FF09040CDE973
:1020F0000335079406F0A2F81023CDE9033506480E
:102100000794002303A9CDE9053306F097F809B039
:1021100030BD00BF00300140000400484FF0B04324
:1021200007B51A6D42F400221A651B6D03F40023F3
:10213000019300220F216FF00100019B05F010FFB9
:10214000002205212E2005F00BFF2E2003B05DF8A4
:1021500004EB05F037BF000010B501468AB000223D
:102160001C2005F0FDFE1C2005F02CFF4FF0B043B5
:1021700001A99A6D134C42F001029A659B6D03F020
:102180000103029303A8029B07F0F4FB07F0CEFBC8
:102190004FF08043236040F2E733E3600A4BB0FB2B
:1021A000F3F001380023606020462361A36008F04B
:1021B000C1FF20B9204608F06BFE0AB010BD012017
:1021C000FBE700BF601A002040420F00FEE7FEE779
:1021D000FEE7FEE7FEE77047FFF758BC014808F04E
:1021E000CFBE00BF54200020014808F0C9BE00BF88
:1021F000601A00200DF076BB0DF024BB06F058B934
:10220000014805F0B1BF00BF481B002008B5002001
:1022100005F044F9BDE80840012005F03FB970B56C
:102220000D4614460E46731B9C4201DC204670BDD1
:10223000AFF3008006F8010BF5E770B50D461446C4
:102240000E46731B9C4201DC204670BD16F8010B44
:10225000AFF30080F5E74FF0FF3070474FF40053C5
:102260004B6000207047012070470020704700003D
:102270000B4A116810B5034609B90A491160106884
:1022800009490A4C0344091B8B4206D90DF03CFE58
:102290000C2303604FF0FF3010BD1360FCE700BF5C
:1022A000AC1A0020E0810020000003200010000094
:1022B000164AD2F8883043F47003C2F888304FF0E1
:1022C000B0436FF482701A6842F001021A604FF452
:1022D000E0229A601968A2F1A26202440A401A60E0
:1022E000D3F8942022F00502C3F89420D3F8982064
:1022F00022F00102C3F89820054ADA601A611A68D0
:1023000022F480221A6000229A61704700ED00E0FA
:102310000010042210B594B01C22002168460DF074
:102320004FFD3422002107A80DF04AFD1D481E4A2A
:102330000023C0E900234FF6FF72C0E90323C0E980
:102340000533836008F0F6FE08B1FFF742FE15483A
:1023500008F050FF08B1FFF73CFE0024602311484D
:10236000069422466946CDE90034CDE90244CDE920
:10237000044408F0D9FF08B1FFF72BFE4FF40053D7
:1023800008480B9407A9CDE90744CDE90944CDE9F4
:102390000C34139409F0CAF808B1FFF71AFE14B010
:1023A00010BD00BFB01A00200044014010B594B029
:1023B0001C22002168460DF003FD3422002107A8ED
:1023C0000DF0FEFC1D481E4A0023C0E900234FF615
:1023D000FF72C0E90323C0E90533836008F0AAFE59
:1023E00008B1FFF7F6FD154808F004FF08B1FFF744
:1023F000F0FD002460231148069422466946CDE989
:102400000034CDE90244CDE9044408F08DFF08B161
:10241000FFF7DFFD4FF4005308480B9407A9CDE9FF
:102420000744CDE90944CDE90C34139409F07EF852
:1024300008B1FFF7CEFD14B010BD00BFFC1A00209C
:102440000048014010B5044688B01422002103A8BA
:102450000DF0B6FC23681D4A934227D14FF0B043DC
:102460001B481A6E42F400321A661A6E02F40032E9
:102470000192019ADA6C42F01002DA64DB6C03F02C
:10248000100300930122009B0223CDE9032303A93B
:102490000E23079305F0D2FE19200022052105F036
:1024A0005FFD192005F08EFD08B010BD094A93426A
:1024B000FAD14FF0B0431A6E42F480221A661B6EB6
:1024C00003F480230293029BEEE700BF0044014027
:1024D00000100048004801401648174A08B54FF45C
:1024E000E133C0E9002300230C22C0E90233C0E934
:1024F0000523C0E90733C0E90933036109F07EFA17
:1025000008B1FFF766FD0B48002109F0E4FA08B1B5
:10251000FFF75FFD0748002109F0FDFA08B1FFF75A
:1025200058FD044809F0BCFA18B1BDE80840FFF7AF
:1025300050BD08BDA81B00200038014030B59DB03B
:1025400005461422002103A80DF03AFC5022002178
:1025500008A80DF035FC2A68234B9A4241D101238B
:1025600008A8089307F01CFB08B1FFF732FD4FF0F5
:10257000B04301211A6E1D481D4C42F480421A6678
:102580001A6E02F480420292029ADA6C42F002025F
:10259000DA64DB6C03F002030193C022019B022387
:1025A000CDE903230323CDE90513072303A90793EB
:1025B00005F044FE0F480F23C4E900034FF0100C50
:1025C000002380222046C4E902C3C4E90423C4E9ED
:1025D0000633236205F056FD08B1FFF7FAFCEC67FD
:1025E000A5621DB030BD00BF0038014000040048A6
:1025F000481B00204404024002F00ABA152906D8FC
:10260000044BCB40DB0702D50174002070476FF00C
:10261000070070470B00300010B50A460C46092130
:1026200002F057FA18B9237803F00103237010BDA4
:1026300001F025BE01F00DBD01F007BEF7B5002386
:102640000C46174601210DF1070206468DF80730AA
:1026500002F03FFA0546D8B9012F9DF8073026D180
:10266000042C3AD8DFE804F003171A1D200043F0C9
:102670001004A3420CD022460121304602F0B8FAE1
:10268000054628B9716986F830413046FFF7D0FF1A
:10269000284603B0F0BD43F02804EAE743F0040401
:1026A000E7E743F04004E4E743F08004E1E7042C6B
:1026B00013D8DFE804F00306090C0F0003F0EF0461
:1026C000D7E703F0D704D4E703F0FB04D1E703F026
:1026D000BF04CEE703F07F04CBE76FF00305D7E735
:1026E00013B500230C460DF1070201218DF80730C8
:1026F00002F0EFF978B99DF80730C3F300122270A9
:10270000C3F3C002A270C3F380026270C3F38012ED
:10271000DB09E270237102B010BD13B5144601AAA3
:1027200001F090FB78B9019B4FF47A72B3FBF2F1A0
:1027300002FB1133C3EB034303F5FA73B3FBF2F36C
:1027400003EB0143236002B010BD37B50D460DF118
:102750000202F821044602F005FA70B901AA042128
:10276000204602F01FFA40B9BDF802201AB1019BC1
:10277000B3FBF2F32B602B68A36103B030BD037F82
:102780000B700020704737B50D460DF10602202171
:10279000044602F0E7F928B9BDF8063023B9236AE8
:1027A0002B60207703B030BDDB002B602362012358
:1027B0002377F7E70529F8B504460E46154635D8C0
:1027C00062B100EB810301215A6B0023701E0428C3
:1027D00007D8DFE800F00E171A1D24001146012368
:1027E000F4E784F82810A119E5B981F828500020F1
:1027F00007E0C2F34F224421204602F009FA0028E4
:10280000F1D0F8BD84F82A10EDE784F82B10EAE740
:102810005B00FE226021204602F00CFAEFE71B016C
:10282000EF22F7E7012381F82830E0E76FF003009B
:10283000E7E7052996BF0918002391F8283013709F
:1028400094BF00206FF00300704770B54318044632
:1028500093F828000E46154618B904EB81067263FA
:1028600070BD05291BD8DFE801F003091214161604
:10287000626304EB860100204D63F1E7C2F34F224F
:102880004421204602F0C4F90028E9D1F1E7E263CF
:10289000EFE72264EDE7C2F34F226421F1E76FF026
:1028A0000300DDE737B50446154605292CD8DFE8D7
:1028B00001F0030717191B1B436B2B60002021E05D
:1028C0000DF10602442102F04DF9D8B9BDF80620F9
:1028D00053029AB12B60A363012384F8293011E0DD
:1028E000C36BEAE7036CE8E70DF10602642102F02E
:1028F00039F938B9BDF806305B02DEE7A36B2B600F
:1029000084F8290003B030BD6FF00300FAE737B553
:102910000D460DF107020121044602F0DAF838B93C
:102920009DF8073084F83031DB092B7084F84C3087
:1029300003B030BD2DE9F843037C0C4601F8083B99
:102940000546FFF702FF40BB207304F11001284643
:10295000FFF719FF08BB04F11401284600F0C3FB80
:10296000D8B904F1240705F1270904F11708064630
:102970003A46B1B22846FFF795FF70B9013619F80B
:10298000013F08F8013F062E07F10407F0D104F1DA
:102990003C012846FFF7BBFF08B1BDE8F883211DC5
:1029A0002846BDE8F84301F0D2BC0000F0B5002293
:1029B000054691B0882102F01BF94FF47A72A5F810
:1029C0004E214FF4C872A5F85021314AC5F8542160
:1029D0000023304A85F8F030C5F8D4202B626946D0
:1029E0002846FFF7A7FF044670B9ADF800006E4611
:1029F0000FCE05F110070FC70FCE0FC70FCE0FC7B1
:102A000096E80F0087E80F00234B244AC5E94D23C1
:102A1000012385F84C310026B4BBB1B2012228460F
:102A2000FFF7C8FE0136062E0446F5D160BB688567
:102A30000246064604212846FFF7BCFE044618BBA2
:102A4000024605212846FFF7B5FE0446E0B94FF4DB
:102A500090136B634FF4804201212846FFF7F5FE87
:102A6000044688B94FF40C13FF22C5E90F3085F8EE
:102A700030210121284602F0BBF8012385F83231CC
:102A8000044608B985F81561204611B0F0BD00BFB5
:102A9000856B0100A4700900F401000A640084033E
:102AA000012300F04FBD2DE9F0428EB00C460C23FF
:102AB00004AA1421054602F03FF8844600286CD190
:102AC0009DF81A309DF81B609DF817209DF818108E
:102AD000A07506EB03269DF81630206002EB03225A
:102AE0009DF81930606003EB01239BB25B029DF8F7
:102AF000121023619DF81330B5F84E0103EB01234A
:102B000092B252029BB2E260A382B0F57A7F9DF846
:102B1000101095F83171B6B20AD0704300F5FA7012
:102B20004FF47A76B0FBF6F02E7F002E39D186B2C4
:102B3000002F40D0B001C0B2B608E0750DF10F0013
:102B40002681CDE90040284601F046FE844620BBA0
:102B50009DF80FE084F818E005F150060FCE07AF9E
:102B60000FC796E80700E37D87E80700D4E9030173
:102B7000A28AADF83020D4E90149CDE90A01CDE9B6
:102B8000084907AC8DF833308DF834E00FCC503560
:102B90000FC597E8070086E8070060460EB0BDE85D
:102BA000F0822E8C5E43B2EB262F4FEA262C04D106
:102BB00057B948F6E0260020BFE780B25043A2EBA9
:102BC0000C06B0FBF6F0B2E742F2B826B2E700001E
:102BD000F7B517460E210DF106021D460B4C0646B1
:102BE00001F0C0FFBDF8063004EA43433B6050B932
:102BF0000DF106020C21304601F0B4FFBDF806309D
:102C000004EA43442C6003B0F0BD00BF0000FE1F87
:102C100073B590F8DA30013B022B06460C4634D8E7
:102C200001AB6A460121FFF7D3FF009BB3F57F0F8D
:102C3000054603D8019BB3F57F0F23D915BB34B1EB
:102C40001349304602B0BDE8704001F0E5BB0422F4
:102C5000FF21304601F0CCFF2A4604467021304661
:102C600001F0C6FF2A460443FF21304601F0C0FFB1
:102C700064B204432A468021304601F0B9FF64B2B1
:102C8000204345B2284602B070BD0025FAE700BFD8
:102C9000AB13002037B5017C0129044624D0032959
:102CA0002FD099BB012201F0A3FF01238DF807303B
:102CB00098B103B030BD01460DF10702204601F086
:102CC00008FF9DF80730DB0705F1010507D530B98E
:102CD000C82DF0D16FF00600EBE70546F1E7C82DEF
:102CE00008BF6FF00600E4E7FFF792FF0222002121
:102CF000204601F07DFF0028DBD1042384F8323127
:102D0000D7E70121FFF784FF0422F0E76FF0070007
:102D1000CFE738B5057C044625B1204600F056FDC6
:102D200028B138BDFFF7B6FF0028F6D0F9E7002D2F
:102D3000F7D1032384F83231F3E773B50646002553
:102D400001220B21304601F053FF002204460B21E3
:102D5000304601F04DFF0DF10702044313213046C8
:102D600001F0B7FE64B29DF8072044EA000358B2B0
:102D700001355307EDB205D0032D08D00028DFD070
:102D800002B070BD032D08BF6FF00B00F8E76FF0C5
:102D90000B00F5E713B50023037401910446FFF718
:102DA000B8FF019950B92046FFF77DFE30B90146C2
:102DB000204602B0BDE81040FFF7BFBF02B010BD13
:102DC000152970B5054616461C4667D10122FF211C
:102DD00001F00EFF002211460446284601F008FFCC
:102DE00000220443FF21284601F002FF64B204439D
:102DF00001228021284601F0FBFE64B20443022236
:102E00008521284601F0F4FE64B204430422FF2128
:102E1000284601F0EDFE64B204430022CD2128468D
:102E200001F0E6FE64B204431122CC21284601F0F1
:102E3000DFFE64B204430722FF21284601F0D8FEDA
:102E400064B204430022BE21284601F0D1FE64B2E0
:102E500004430622FF21284601F0CAFE64B204435F
:102E60000922CC21284601F0C3FE64B204430022AB
:102E7000FF21284601F0BCFE64B204430122FF2179
:102E8000284601F0B5FE64B20022044311462846EC
:102E900001F0AEFE64B2204340B270BD042A17D8E0
:102EA0000A2101F0A5FE0028F7D1231E18BF012337
:102EB0001B01EF228421284601F0BCFE0028ECD142
:102EC00085F8DA6001462846BDE87040FFF735BF57
:102ED0006FF00A00E1E7000070B594B005464022AB
:102EE000002104A80CF06CFF002301212846ADF856
:102EF00006308DF803308DF80430029300F0B5FCF5
:102F000095F8142195F81311012A04D840F0AD80EA
:102F1000202940F2AC8001AA02A9284600F02EFB2D
:102F20000446002840F09E8095F84C31002B40F07C
:102F3000A280D5F84811284601F06EFA0446002810
:102F400040F090802346214604222846FFF738FFB0
:102F50000446002840F086800122FF21284601F027
:102F600047FE0DF1060206468421284601F0FAFDCF
:102F700022460643FF21284601F03AFE76B230434E
:102F800044B2002C6ED1BDF806301B01C5F8D43018
:102F900004A92846FFF7CEFC0446002862D10DF1B3
:102FA00003012846FFF738FB044600285AD19DF854
:102FB000033085F8313104AE0FCE05F110040FC493
:102FC0000FCE0FC40FCE0FC496E80F0084E80F0099
:102FD0000DF103020121284601F07BFD0446002883
:102FE00040D19DF8033085F830310246014628462D
:102FF000FFF724FB0446A8BB024602212846FFF740
:103000001DFB044670BB0323014685F832310DF1E8
:103010000502284601F019F9044618BB9DF8053051
:1030200085F8E8300DF105020121284601F00DF97F
:103030000446B8B99DF8053085F8E03003AA0321AD
:103040002846FFF76AFB044660B9039BC5F8E430E5
:1030500003AA04212846FFF760FB044610B9039B2E
:10306000C5F8DC30204614B070BD0C2951E7284665
:1030700000F010F954E701495DE700BFB8120020E5
:1030800013B50C460DF10702132101F022FD9DF846
:10309000073013F0180F03F0070218BF6FF0050098
:1030A000226002B010BD13B590F8DA30042B0C4644
:1030B0000BD101A9FFF7E4FF019B042B01D10123F0
:1030C00000E00023237002B010BD01AA142101F01A
:1030D00000FD0028F7D19DF80430DB07EFD4207005
:1030E000F1E700F04BBA13B50C460DF106022821AA
:1030F00001F038FD78B9BDF80620C2F30B0312F4D5
:10310000006F18BFA3F580534FF0FA0214BF13FBF2
:1031100002F35343236002B010BDF0B54FEAD20C66
:103120004FF0FF341C6002F00702664600278E4213
:1031300000D207B1F0BD845D664503BF1441E4B21F
:1031400015463D4614F0010704D005EBC6051D6089
:103150000136ECE70135082D4FEA5404F2D1F7E7C8
:10316000034B800953F82000003818BF0120704736
:103170006415002010B5B1EBD20F4FEAD20402F073
:10318000070381BF01229A40035D13438ABF0355A1
:103190006FF03100002010BD0A460623B02101F077
:1031A000ADBC0A460623B02101F0C6BC2DE9F04FA4
:1031B00085B08046109E0E9D01968A4693461C4619
:1031C0004FF00009119B994508D10023129A16600F
:1031D000F3B16FF0310005B0BDE8F08F01AB3246BE
:1031E00029465846FFF799FF019F7B1C0DD00F9B86
:1031F000F818FFF7B5FF504507D13A462046FFF7CC
:10320000B9FF7E1C09F10109DCE76FF03103DDE74E
:1032100021464046FFF7C0FF0028DCD102A9404606
:10322000FFF7BFFF2544214602ABA942D3D011F8D6
:10323000014B13F8012B9442F7D0CAE770B5C022B6
:1032400088B00E46012190F83041054601F0D0FCCF
:10325000F0B901A92846FFF79DFDC8B90122FF2159
:10326000284601F0C5FC98B93246B621284601F03F
:1032700079FC68B90246FF21284601F0B9FC38B94B
:1032800022460121284601F0B3FC08B985F83041F7
:1032900008B070BDF0B50F4689B01646FF21012277
:1032A000044601F0A5FC0246A8B94F21204601F0D2
:1032B0009FFC80B92C224E21204601F099FC024649
:1032C00048B9FF21204601F093FC20B9B422B62171
:1032D000204601F08DFC0025C4F82451A4F82851A3
:1032E000DEB9354607ABB422CDE903730623CDE939
:1032F0000032029504F5927304F59572314620462A
:10330000FFF754FF30B9012384F8153184F81371A5
:1033100084F8146109B0F0BD013505F1B400FFF780
:103320001FFF0028DED12C2DF6D1DBE710B541F0D0
:1033300001020021044601F05BFC78B9204600F050
:1033400045FA58B901462046FFF7F7FC30B9024666
:1033500001462046BDE8104001F04ABC10BD2DE9F1
:10336000F74F4FF0000B88461746FF210122054614
:103370001E469DF838A09DF83C908DF807B001F0EE
:1033800037FC5A4604465946284601F031FC5A4655
:103390000443FF21284601F02BFC64B2044364B2CD
:1033A000B8F1000F32D0BAF1000F06D00C9ACB2141
:1033B000284601F08EFB204344B2B9F1000F07D03C
:1033C0000DF10702EE21284601F083FB204344B2B1
:1033D0000122FF21284601F00BFC012204430021B9
:1033E000284601F005FC64B204430022FF21284670
:1033F00001F0FEFB64B29DF807300D9A204323F0E4
:10340000100340B2137003B0BDE8F08FBAF1000FA3
:1034100006D03A46CB21284601F0EAFB204344B2CD
:10342000B9F1000FD4D033468022EE21284601F0B6
:1034300001FCCBE72DE9F04387B091460022054619
:1034400088468DF817201E461BB390F83071012274
:103450001146284601F0CCFB044658BB40212846C3
:10346000FFF764FF044628BBB9F1010F13D10DF13A
:103470001703CDE90290CDE9008302460346494691
:103480002846FFF76CFF40B10446204607B0BDE870
:10349000F0831F46DBE788F80000002EF5D03A469F
:1034A0000121284601F0A4FB04460028EDD185F84F
:1034B0003071EAE7002388F800302046E4E72DE980
:1034C000F043054687B0884691461E4623B390F8E0
:1034D000307102220121284601F08AFB044660BBBC
:1034E00001462846FFF722FF044630BBB9F1010F21
:1034F00014D10DF11703CDE90209009302460346EA
:10350000CDF8048049462846FFF729FF40B104461C
:10351000204607B0BDE8F0831F46DAE788F80000D0
:10352000002EF5D03A460121284601F061FB044601
:103530000028EDD185F83071EAE7002388F80030E3
:103540002046E4E773B515461A460023019290F829
:1035500030610446FFF76EFF019A68B903462946B9
:103560002046FFF7ACFF38B932460121204601F072
:103570003FFB08B984F8306102B070BD2DE9F04F0F
:10358000002393B0CDE90A12C0F82431A0F8283105
:103590000122FF21CDE90E33B0F83A818DF83430A5
:1035A00005468DF8353001F023FB0446002840F035
:1035B000FC8002464F21284601F01AFB04460028F1
:1035C00040F0F3802C224E21284601F011FB0446E6
:1035D000002840F0EA800246FF21284601F008FB5F
:1035E0000446002840F0E180B422B621284601F0CC
:1035F000FFFA0446002840F0D88002468021284681
:1036000001F0F6FA0446002840F0CF8003460DF1A1
:1036100035020DA92846FFF795FF0446002840F023
:10362000C4800323CDE90203B421062305F5957A6E
:1036300005F592790EAECDE90031049601464B4670
:1036400052462846FFF7B2FD0446002840F0AD8000
:103650000DF136012846DDF838B0FFF7EFFD0446DE
:10366000002840F0A280BDF83630434540F2A680E5
:10367000C5F82401A5F828010BF1B400FFF770FD8F
:1036800010B9BBF12B0F7AD90623B4220327CDE959
:103690000032CDE902B704964B4652460121284636
:1036A000FFF784FD002840F087800DF136012846A1
:1036B000DDF838B0FFF7C2FD00287DD1BDF8363007
:1036C00043457ED901260696BDF8363043455DD286
:1036D000A3EB080383EAE372A2EBE3729DF81860A0
:1036E000099205F5927303270793079B18689B8837
:1036F0001090ADF844305A460FAB06215046FFF704
:103700000CFDDDF83CB0BBF1FF3F52D07B1C0BF150
:10371000B4000893FFF724FD069B984249D15A460E
:103720004846FFF727FD002846D1494628460BF1B9
:10373000010BFFF731FD00283ED10DF1360128467F
:10374000FFF77CFD002837D1BDF83610A1EB080348
:10375000002BB8BF5B42414514D9099A934214D952
:1037600010A92846FFF718FD079A079903461098F5
:103770001060BDF844208A8043B11C4615E00BF16F
:10378000010B79E7089F0993AFE7089F0A9B1F6029
:103790000B9B1E70012385F815310A9B1B6885F869
:1037A00013310B9B1B7885F81431204613B0BDE80C
:1037B000F08F6FF03104F8E70446F6E7002637464D
:1037C00081E701230646074606937DE737B50023C8
:1037D00004468DF80730C8250DF107012046FFF794
:1037E00062FC58B99DF80730012B07D0013D03D08A
:1037F000204601F036FAEFE76FF0060003B030BD67
:103800004FF08043834203D800221BB91046704713
:103810009B08F7E7D11881424FEA52029CBFD218A9
:10382000401A9B08F1E773B500228321054601F099
:10383000DFF9044680B9C8260DF107028321284626
:1038400001F047F99DF807300343DBB204461BB98A
:10385000013EF1D16FF0060401228321284601F0D8
:10386000C7F9204340B202B070BD2DE9F04F90F887
:10387000F06091B04FF00009072ECDE9079904469A
:103880000F4600F0A0820122802101F0B1F901224F
:103890008046FF21204601F0ABF94A4648EA00087D
:1038A0004946204601F0A4F94FFA88F848EA000892
:1038B0000622FF21204601F09BF94FFA88F848EADA
:1038C00000080DF115028321204601F002F99DF850
:1038D00015204FFA88F848EA000842F004028321D4
:1038E000204601F085F94FFA88F848EA00080722D7
:1038F000FF21204601F07CF94FFA88F8012281214E
:1039000048EA0008204601F073F94FFA88F848EABF
:103910000008204601F0A5F94FFA88F848EA0008A7
:1039200001228021204601F063F94FFA88F848EA25
:10393000000017F0010B45B200F01C82F20700F105
:103940001C826B229421204601F052F980462046C9
:10395000FFF769FF48EA0000054306AA90212046C8
:1039600001F020F96DB2069B2422942105432046E4
:10397000C3F3062AC3F3C03901F03AF96DB2054327
:103980002046FFF750FF6DB2054306AA902120465E
:1039900001F008F96DB2069B28431BBA45B22522F7
:1039A00094212046099301F023F9284345B220468B
:1039B000FFF739FF06AA05439021204601F0F2F8EF
:1039C000069B6DB21A0E28431B0C45B28DF82820B9
:1039D0008DF8293017F00203029300F0DB8016F017
:1039E000020840F0D78002229421204601F000F91D
:1039F00001902046FFF717FF019B184305430DF187
:103A000016029021204601F064F86DB27B229421C9
:103A10000543204601F0ECF86DB205432046FFF760
:103A200002FF6DB205430DF117029021204601F00F
:103A300050F86DB2772294210543204601F0D8F862
:103A40006DB205432046FFF7EEFE6DB2054306AAB0
:103A50009021204601F0A6F8069B5A0E8DF82C20E6
:103A6000C3F386428DF82D20C3F3C6228DF82E2095
:103A70006DB2C3F30612DB0003F078039421054313
:103A80008DF82F20204678228DF8153001F0B0F8FF
:103A90006DB205432046FFF7C6FE6DB2284345B21E
:103AA00006AA9021204601F07DF8069B9DF815207E
:103AB00002EB53728DF83020C3F386528DF831201B
:103AC000C3F3C6328DF83220C3F3062228438DF8A3
:103AD0003320C3F346029B0103F04003942145B217
:103AE0008DF83420204679228DF8153001F080F8C9
:103AF00005432046FFF797FE6DB2284345B206AA5C
:103B00009021204601F04EF8069B9DF8152002EB0F
:103B100093628DF83520C3F3C6428DF83620C3F387
:103B2000063228438DF83720C3F346129B0003F07A
:103B30007C03942145B28DF8382020467A228DF8F6
:103B4000153001F055F805432046FFF76CFE6DB2C5
:103B5000284345B206AA9021204601F023F8069B8F
:103B60009DF815208DF83E8002EB93728DF8392078
:103B7000C3F3C6528DF83A20C3F3064228438DF8AA
:103B80003B20C3F34622C3F3860345B28DF83C20A5
:103B90008DF83D3017F00403019300F0F0807307B7
:103BA00000F1ED807B229421204601F021F880462F
:103BB0002046FFF738FE48EA000028434FFA80F815
:103BC00007AA9021204600F0EDFF48EA000045B228
:103BD0007C229421204601F00BF8284345B2204670
:103BE000FFF721FE284345B208AA9021204600F0A5
:103BF000D9FF284345B273229421204600F0F8FFF4
:103C0000284345B22046FFF70EFE06AA0543902141
:103C1000204600F0C7FF069B6DB21B027422942160
:103C2000054320461FFA83F800F0E2FF6DB205431A
:103C30002046FFF7F8FD6DB2054306AA9021204605
:103C400000F0B0FF6DB29DF81B3075229421054342
:103C5000204643EA080800F0CBFF6DB2054320463A
:103C6000FFF7E1FD6DB2284345B206AA9021204638
:103C700000F098FF069B28431B029BB276229421FA
:103C800045B22046039300F0B3FF05432046FFF7FB
:103C9000CAFD6DB2054306AA9021204600F082FFBE
:103CA0006DB29DF81B20039B284345B213430022AD
:103CB00081212046039300F09BFF284345B2062252
:103CC000FF21204600F094FF0DF1150205438321EA
:103CD000204600F0FEFE9DF815206DB2054302F06F
:103CE000FB028321204600F083FF6DB205430122D1
:103CF000FF21204600F07CFF6DB205430122002128
:103D0000204600F075FF6DB205430022FF212046DA
:103D100000F06EFF6DB2054300228021204600F0C6
:103D200067FF6DB205436DB2039BFDB9BBF1000F98
:103D300029D1029AAABB019AAAB1720713D4079A91
:103D4000C4F81821089AC4F81C214FEA4822C4F884
:103D500020213BB1A3F5C8534FF47A7253431B099A
:103D60005B421BB2E3603E4384F8F060284611B02A
:103D7000BDE8F08FD946DA462CE6CA462AE64FF06F
:103D80000008434693E7F007D3D40998BDF82820EC
:103D900084F813A184F81491C4F82A01A4F82E2100
:103DA000C7E7B107C7D49DF8162084F8F1209DF825
:103DB000172084F8F2200BA904F1F30002930CF011
:103DC000D0F8029BB7E74D46D0E750B10138002349
:103DD00030F0FF019AB203F1010303D100EB02209E
:103DE00080B270474008F3E7C3B2000A03FA00F05C
:103DF00001307047084B5A434FF47A7302F5FA7258
:103E00004FF4FA60B2FBF0F0B2FBF3F203FB0100F7
:103E1000B0FBF2F0704700BF002F3A0010B5084B1E
:103E20005A4302F5FA724FF47A704FF4FA64B2FB17
:103E3000F0F3B2FBF4F201FB0322B2FBF0F010BD91
:103E4000002F3A002DE9FF4102294FF000050746F7
:103E500016468DF80350ADF804501CD80DF102023F
:103E60002946FEF7E9FB044630B90DF1030246216D
:103E7000384600F02EFE04469DF80300FFF7B4FF1D
:103E800081B29DF802203846FFF7C8FF3060204617
:103E900004B0BDE8F081032918D10DF102022946D2
:103EA000FEF7CAFB0446002846D101460DF1020286
:103EB0003846FEF7C1FB044628B901AA512138460D
:103EC00000F050FE0446BDF80400D7E7042935D1C0
:103ED00002A9FEF705FC9DF80B30ABB10DF1020213
:103EE00029463846FEF7A8FB044658B901AA5121D5
:103EF000384600F037FE0446BDF80400FFF774FFB3
:103F000085B214B1002015E01D460DF10202012119
:103F10003846FEF791FB04460028F3D10DF1060266
:103F20007121384600F01EFE0446BDF80600FFF77A
:103F30005BFF80B2401BA3E72846A7E728462C4634
:103F4000A4E7F0B5022985B0054616461ED80DF146
:103F500005020021FEF770FB0446A0B99DF805207C
:103F600031462846FFF746FF83B2B3F5807F9ABFFC
:103F700000F1FF32D2B2FF22A5F8D8204621284610
:103F800000F036FE0446204605B0F0BD03291FD1DF
:103F90000DF105020021FEF74FFB9DF8052031468B
:103FA00004462846FFF726FF80B2FFF70EFF0246C1
:103FB000ADF80600A5F8D800002CE4D15121284620
:103FC00000F026FE04460028DDD1C5F8E460DAE7FB
:103FD00004293BD102A9FEF783FB9DF80B70B7B112
:103FE0000DF1050200212846FEF726FB04460028B5
:103FF000C9D10DF106025121284600F0B3FD044657
:10400000BDF80600FFF7F0FE87B2002CBBD10DF122
:10401000050201212846FEF70FFB04460028B2D115
:104020009DF8052031462846FFF7E4FE17FA80F098
:1040300080B2FFF7CAFE71210246284600F0E8FD73
:10404000044600289FD1C5F8DC609CE76FF00304AC
:1040500099E7F0B585B000238DF80330D307054606
:104060000F46164605D439B9A2F10C03DAB2062A76
:1040700011D96FF00300E6E0012921D1A2F1080374
:10408000DAB2062AF5D8062B1AD8DFE803F03B1976
:1040900069198A199D00062B12D8DFE803F0041174
:1040A0002D112F11310018225721284600F0A0FDB4
:1040B00008225621284600F09BFD002840F0C380CE
:1040C0007408013CE4B2002F00F09180012FD0D1A0
:1040D00001AA04212846FFF7B5FE50B922467021F7
:1040E000284600F085FD20B9019A04212846FFF7F3
:1040F00028FF85F8E06099E03022D5E74022D3E739
:104100005022D1E71022482100F072FD08224721F9
:10411000284600F06DFD022204463221284600F0B8
:1041200067FD0C2204433021284600F061FD64B293
:1041300004430122FF21284600F05AFD64B20443E3
:1041400064B230223021284600F052FD204344B2B0
:104150000022FF21284600F04BFD204340B2ACE78F
:104160002822482100F044FD08224721284600F07B
:104170003FFD032204463221284600F039FD044366
:1041800064B209223021284600F032FD01220443A6
:10419000FF21284600F02CFD64B2044364B22022C3
:1041A000D0E73822482100F023FD08224721284685
:1041B00000F01EFD032204463221284600F018FDBF
:1041C000044364B20822DDE74822114600F010FDE6
:1041D00008224721284600F00BFD03220446322125
:1041E000284600F005FD044364B20722CAE702AA8C
:1041F00003212846FFF726FEB0B903AA022128466C
:10420000FFF720FE80B922465021284600F0F0FC3E
:1042100050B9029A03212846FFF793FE20B9039A6A
:1042200002212846FFF78DFE85F8E86058B96969D4
:104230002846FEF7FDF930B9024601230DF10301CE
:104240002846FFF73CF905B0F0BD13B5144629B177
:10425000012910D06FF0030002B010BD0DF107026C
:10426000502100F036FC0028F6D19DF807300133CC
:104270005B002370F0E70DF107027021F1E7F0B564
:10428000002385B04FF4FA62CDE9002344F61F63A2
:10429000994206460F4604D86FF00305284605B03C
:1042A000F0BD02A9FEF71CFA05460028F6D19DF8DC
:1042B00009209DF8083013439DF80A201343A7F600
:1042C000E8041BD06A4602213046FFF7BBFD0028F8
:1042D0003BD19DF808302BB1009B03F24E239C424A
:1042E000DAD9E41A9DF80A3023B3009B03F2B22313
:1042F000B4EB430F4FEA4302CED9A41A9DF80B301A
:104300005BB101AA03213046FFF79CFD019B03F539
:104310002573A342C0D2C0B9E41A9DF80C30002B1B
:10432000BCD0A4F2262204213046FFF70AFE7761B2
:104330000546B3E79DF80930002BDFD0009B03F55D
:1043400025739C42A8D9E41AD8E70546A6E770B5BC
:104350004FF4FA6286B00023CDE9022340F63633EB
:104360000B600C4604A90646FEF7BAF9054600287C
:1043700036D19DF811209DF8103013439DF812207E
:10438000134319D002AA02213046FFF75BFD002833
:1043900040D19DF810302BB1029B03F24E222368CE
:1043A000134423609DF81230EBB1029B03F2B2225A
:1043B000236803EB420323609DF81330EBB99DF8AB
:1043C00014305BB101AA04213046FFF73BFD019B8D
:1043D00003F22622236813442360D8B9236873614B
:1043E000284606B070BD9DF81130002BE4D0029B2A
:1043F00003F5257223681344DDE703AA0321304641
:10440000FFF720FD039B03F5257223681344236007
:104410000028D4D00546E3E72DE9F74300240646FB
:104420000D46204615F80480B8F1000F00D010B1F9
:1044300003B0BDE8F083671CB8F1FF0F15F80790D3
:1044400029D1A71CEB5DB9F1030F36D8DFE809F0DD
:10445000020B131B271D2C44E27802EB0323A6F862
:1044600034313C46DEE7271D2C44E27802EB03237F
:10447000A6F83631F5E7271D2C44E27802EB03233A
:10448000A6F83831EDE7271D2C44E27802EB032330
:10449000A6F83A31E5E7B8F1040F0ED802344246E7
:1044A000291901A80BF065FD434601AA494630468B
:1044B00004EB080700F022FBD3E76FF00300D0E71E
:1044C00073B500230E4613600DF10701054614462F
:1044D000FEF755F940B99DF807302BB1B38A2A6A27
:1044E000534380331B0A236002B070BD13B5CB6801
:1044F0001360144601AAFFF7E3FF18B92368019A75
:104500001344236002B010BDF8B5B0F85051D0F894
:10451000540168438030000ADDE90776454352B113
:10452000880200EB5200B0FBF2F202EB420252436F
:1045300002F50042120C06994B4307F50041090CA5
:1045400006200331B1FBF0F1C1EBC101B1F5803FB1
:1045500038BFF91C03F500433EBFB1FBF0F1C1EBDE
:10456000C10101F500414FEA134334BF090C1B4957
:1045700003FB03F338BF494303EB56030B44B3FB80
:10458000F6F39B03FE2105F120007F33B3FBF1F32B
:1045900003FB02F44FF47A7704F5FA748009B4FB54
:1045A000F7F42401FFF72CF904F5FA74BC4228BF94
:1045B0004FF4FA63064629BFB4FBF3F300205B19FE
:1045C000B4FBF7F428BFB3FBF4F0FFF719F9099B2C
:1045D000864294BF1E6018600020F8BD0000F0FF06
:1045E0002DE9F04F2DED028B8FB0CDE90623036A44
:1045F0000C930B690893CB68054688460DAA08EE14
:10460000103AFFF773FF0CAA41462846FFF758FF00
:1046100050BB95F8E060D5F8DC30D5F8E41095F89B
:10462000E8E0DDF830B0DFF8AC91082E0CBF0224D2
:10463000032409940D9C4FF47A7707FB04FC0CF5D6
:104640000042049204F1800222F0FF0A0592049ACB
:10465000CDF834A0120C0A920BD1069BC3F800903F
:10466000079BC5F83C9118600FB0BDEC028BBDE80C
:10467000F08F07FB0BFB7246BBF5481F284628BF8F
:104680004FF4481B0B93FFF7B5FB0B9B32461946C3
:1046900004462846FFF7AEFB099B089E49494A4A53
:1046A00004445C43E40240F2776304F5FA74B4FB1B
:1046B000F7F45C43059B1B0A04F5FA74B4FBF7F4AA
:1046C00063437E4380331B0A16400A9AB6FBF2F618
:1046D0008E4228BF0E46012B38BF01230C204FF419
:1046E000167158434E43FFF78BF8049B364A0590EA
:1046F00003EA020C3548B8F80820ACEB0B01424342
:1047000041F25C20B2FBF0F20BF5FA70604401F567
:10471000FA71B0FBF7F0B1FBF7F10902B1FBF0F76A
:104720003F02C7F58037574307F500473F0C07F5B1
:1047300080377F087F43BF0B4FF44870784306F5FE
:10474000004200F50040120C5243000C00FB002018
:10475000FFF756F8059B0004642232305B00B0FB83
:10476000F2F040F6B532B0FBF3F341F2883002FBD1
:104770000300174B984296BF42F210734FF47040FB
:10478000B0FBF3F041F2041300FB0030FFF738F800
:104790004FF47A7358434845069B28BF4846186033
:1047A000079BC5F83C01CDE902434FF448730093E1
:1047B00018EE102A01963B4651462846FFF7A4FE04
:1047C00052E700BF666666000000FFFF9A99060088
:1047D0000F279F24AE878F022DE9F04F8BB0002664
:1047E00011F0780F159F0192044698468DF80E60DF
:1047F0008DF80F608DF810608DF81160ADF81260C3
:104800000996C1F3C30900F0B680A9F10503DBB234
:104810000A2B01D86F4AD65C0122FF21204600F006
:10482000E7F928B90DF11202B621204600F09AF9F5
:10483000BDF812A04FEA4A2A20B90246FF212046BD
:1048400000F0D6F9C4F844A128B901460DF10E02D2
:104850002046FDF7EEFF9DF80E50D5B1002840F040
:104860008C80149909AB05AA2046FFF7B9FE0028F1
:1048700040F08380149A099B5381014606AA204682
:10488000FEF710F8069D25B1059B9D422CBF002523
:10489000012520B904AA02212046FDF7CAFF9DF890
:1048A00010B0BBF1000F0FD000286AD107AA022177
:1048B0002046FDF7F7FF079B002B60D053452CBF28
:1048C0004FF0000B4FF0010B28B90DF1110203213D
:1048D0002046FDF7AEFF9DF811A0BAF1000F14D0ED
:1048E000002874D1B8F1000F03D0019B1A02B2FB6B
:1048F000F8F808AA03212046FDF7D4FF089A42459C
:1049000094BF4FF0000A4FF0010A18B9012E3BD1B5
:10491000FF223A703A780AB9149B5A810DF10F02BE
:1049200001212046FDF785FF10BB9DF80E209DF864
:104930001130002A08BF0125B9F1040F18BF9DF8F6
:104940000F2084F82E501ABFB2FA82F252090122C7
:1049500084F82F209DF81020002A08BF4FF0010B8B
:10496000002B08BF4FF0010A84F830B084F831A062
:104970000BB0BDE8F08F01264EE700258FE79B4680
:10498000A2E74FF0000BA6E709F1FF32092A0AD887
:10499000DFE802F0050505090907090C070C0522E7
:1049A000B7E70422B5E7BBF1010F01D10322B0E75D
:1049B000B9F1040F02D0BAF1010F01D10222A8E728
:1049C000012D17BF00223D703A70AA46A2E74FF0B2
:1049D000000A9FE7440E0108F8B50F46022106467B
:1049E0001446FEF742FF054640B996F8F13004F14F
:1049F00040002BB905493D700BF0B3FA2846F8BDCD
:104A000096F8F2303B7006F1F301F5E71D1201084C
:104A100037B50C460A460DF107010546FFF7DCFFE6
:104A200000BB9DF80730FBB9154920460BF099FAF9
:104A3000144904F120000BF094FA04F16002C02143
:104A4000284600F046F868B90DF10602C221284652
:104A500000F03FF8012384F861309DF806301B090F
:104A600084F8623003B030BD222B03D8202B03D052
:104A70000549DAE7262B01D80449D6E70449D4E7EB
:104A80004F0E0108880E01085B0E0108670E010831
:104A9000730E010807B502F10A03009393B20A46A8
:104AA00090F85C11D0F8580103F0F6FE03B05DF801
:104AB00004FB13B502F10A0390F85C410093D0F8AF
:104AC000580193B20A4644F0010103F091FF02B08D
:104AD00010BD37B515468DF8071001220DF10701FD
:104AE0000446FFF7D7FF28B9012229462046FFF7E1
:104AF000E0FF08B16FF0130003B030BD3F2BF8B5F5
:104B00000E46054611461C4611D80A4F38461A462D
:104B100000F8016B0BF02DFA621C39462846FFF7AE
:104B2000B9FF00280CBF00206FF01300F8BD6FF034
:104B30000300FBE73C1C002073B515468DF80710F9
:104B400001220DF1070104461E46FFF7A3FF28B915
:104B5000324629462046FFF7ACFF08B16FF013003C
:104B600002B070BD73B514468DF8071001220DF127
:104B700007010646FFF78EFF18B16FF0130002B071
:104B800070BD074D022229463046FFF792FF0028EC
:104B9000F3D12A786B7803EB02232380EFE700BF81
:104BA0003C1C002073B514468DF8071001220DF14E
:104BB00007010646FFF76EFF18B16FF0130002B051
:104BC00070BD0A4D042229463046FFF772FF0028C7
:104BD000F3D16B782A781B0403EB0263EA78134461
:104BE000AA7803EB02232360E9E700BF3C1C002006
:104BF00008B5064B19705A7019460222FFF74AFF92
:104C0000002814BF6FF01300002008BD3C1C0020DA
:104C100008B5074B1970110A59709A70194603228A
:104C2000FFF738FF002814BF6FF01300002008BD05
:104C30003C1C0020F7B515460DF1070206460F464D
:104C40001C46FFF746FF50B99DF807301D4044EA67
:104C50000502394630468DF80720FFF7C9FF03B03B
:104C6000F0BD08B50220FCF751FA002008BD000095
:104C7000D0F8643113B50446002B66D0FEF72CF94A
:104C800010B133480AF088FF0DF102020DF1010165
:104C90002046FDF705FF10B12E480AF07DFF0DF10B
:104CA000030201A92046FEF71CFA10B12A480AF0B7
:104CB00073FF00212046FDF7A1FC10B127480AF040
:104CC0006BFF012200212046FDF774FD10B124483E
:104CD0000AF062FF012211462046FDF76BFD10B17C
:104CE0001F480AF059FF41F6991201212046FDF7AD
:104CF000ACFD10B11B480AF04FFF4FF470120021B9
:104D00002046FDF7A2FD10B116480AF045FF48F213
:104D1000E8012046FDF78CFC10B113480AF03CFF77
:104D2000122200212046FDF785FC10B10F480AF041
:104D300033FF0E2201212046FDF77CFC10B10B4809
:104D40000AF02AFF0123C4F8783102B010BD00BF79
:104D5000900E0108AA0E0108CF0E0108F70E0108F7
:104D6000140F0108370F0108590F01088F0F0108B0
:104D7000D458C4500433C4188C42F9D3704703602C
:104D800004308842FBD370470C488546FDF790FA03
:104D90000B480C490C4A0023FFF7EDFF0B480C4968
:104DA0000C4A0023FFF7E7FF0B480C490023FFF7ED
:104DB000E8FF0BF0AFF8FCF7DBFFFEE70000032095
:104DC00008000020881800205C120108E40103207C
:104DD000670A03202B2B0108E0180020DC8100204B
:104DE000FEE70000024B1A780AB101225A707047A0
:104DF0001D1D0020024B1A780AB100225A7070471C
:104E00001D1D002073B5334E35780C46002D5ED144
:104E100000285CD000295AD02F48FBF78FFF20468E
:104E2000FCF74AF801902046FCF749F80199024640
:104E30002948FCF73AF829462748FCF743F820466A
:104E4000FCF72DF801902046FCF72CF8019902465A
:104E50002148FBF7EEFF20492046FBF7D5FF1F480E
:104E60001F4CFBF707FF1F491C48FBF725FF1E4996
:104E70001A48FBF7ECFE19482946FCF723F81749B6
:104E80001548FBF7C1FF1548FBF7FCFF2046FBF771
:104E900033FF29462046FCF715F8012264212046FD
:104EA000FCF703F82A4629462046FBF7C2FF4B23AE
:104EB0002146094884F83030FBF7A6FF2046FBF76F
:104EC000BFFF29462046FCF703F80123337002B0E8
:104ED00070BD00BF1D1D0020EC1C00207C1C0020AC
:104EE000B81C0020A8020020B20F0108034B1B7859
:104EF0001BB103480121FBF7EBBF70471D1D0020CC
:104F0000EC1C0020034B1B781BB103480021FBF76E
:104F1000DFBF70471D1D0020EC1C002038B51D4C64
:104F20002378002B34D0002832D0002930D08D884F
:104F30004B885B1B9BB233B10A886421521B4A43E6
:104F400092FBF3F3DBB2144A82F8303062782AB96C
:104F5000037863B1012B06D0104909E0322B104BC6
:104F600003D901221A700F4902E000221A700E497B
:104F70000E48FBF76CFE0D48FBF784FF617806488E
:104F8000FBF7A6FF61780948BDE83840FBF79ABFF8
:104F900038BD00BF1D1D0020B81C0020C40F010833
:104FA0001C1D0020BB0F0108B20F01087C1C002053
:104FB00070B5094E33780446084663B15CB151B10F
:104FC000064B00251B78637025702B460222214674
:104FD00008F03AFA757070BD1D1D00201C1D0020E0
:104FE000024B1A780AB101225A707047C11D002085
:104FF000024B1A780AB100225A707047C11D002076
:1050000073B5334E35780C46002D5ED100285CD048
:1050100000295AD02F48FBF791FE2046FBF74CFFA2
:1050200001902046FBF74BFF019902462948FBF708
:105030003CFF29462748FBF745FF2046FBF72FFF9B
:1050400001902046FBF72EFF019902462148FBF70D
:10505000F0FE20492046FBF7D7FE1F481F4CFBF708
:1050600009FE1F491C48FBF727FE1E491A48FBF79B
:10507000EEFD19482946FBF725FF17491548FBF7B0
:10508000C3FE1548FBF7FEFE2046FBF735FE29461A
:105090002046FBF717FF012264212046FBF705FF9E
:1050A0002A4629462046FBF7C4FE4B2321460948E1
:1050B00084F83030FBF7A8FE2046FBF7C1FE2946F6
:1050C0002046FBF705FF0123337002B070BD00BF1F
:1050D000C11D0020901D0020201D00205C1D00200F
:1050E000A8020020DE0F0108034B1B781BB1034808
:1050F0000121FBF7EDBE7047C11D0020901D00206F
:10510000034B1B781BB103480021FBF7E1BE70473E
:10511000C11D0020901D002038B5214C2378002BA4
:105120003DD000283BD0002939D08D884B885B1BAF
:105130009BB233B10A886421521B4A4392FBF3F3BA
:10514000DBB2184A82F8303062783AB90378012B22
:1051500021D0022B07D003BB134905E0202B134AB3
:1051600012D80223137012491248FBF770FD114840
:10517000FBF788FE61780B48FBF7AAFE61780D48C3
:10518000BDE83840FBF79EBE412B02D900231370C7
:10519000E2E7012313700849E6E70849E4E738BD70
:1051A000C11D00205C1D0020F60F0108C01D00205D
:1051B000DE0F0108201D0020E90F0108C40F0108BF
:1051C00038B50A4D2B78044608466BB164B159B125
:1051D00001232370064B1B786370022200232146B3
:1051E00008F032F900236B7038BD00BFC11D0020EC
:1051F000C01D002073B5234E35780C46002D3ED1DE
:1052000000283CD000293AD01F48FBF797FD2046E4
:10521000FBF752FE01902046FBF751FE0199024632
:105220001948FBF742FE29461748FBF74BFE20467C
:10523000FBF735FE01902046FBF734FE019902464C
:105240001148FBF7F6FD10492046FBF7DDFD0F483E
:10525000FBF710FD0E490D48FBF72EFD0D490B48DD
:10526000FBF7F5FC09482946FBF72CFE07490648E1
:10527000FBF7CAFD0548FBF705FE0123337002B0BA
:1052800070BD00BF301E0020001E0020C41D002085
:10529000A802002016100108034B1B781BB103481D
:1052A0000121FBF715BE7047301E0020001E0020B4
:1052B000034B1B781BB103480021FBF709BE704765
:1052C000301E0020001E00200C4B1B7807B58BB150
:1052D00080B10068FBF710F9094ACDE900011421FB
:1052E00008480AF061FC0749074803B05DF804EB81
:1052F000FBF7ADBC03B05DF804FB00BF301E00201F
:105300001E100108311E0020C41D0020024B1A7817
:105310000AB101225A707047EC1E0020024B1A7825
:105320000AB100225A707047EC1E002073B5334E4C
:1053300035780C46002D5ED100285CD000295AD06B
:105340002F48FBF7FBFC2046FBF7B6FD01902046FB
:10535000FBF7B5FD019902462948FBF7A6FD294652
:105360002748FBF7AFFD2046FBF799FD019020464B
:10537000FBF798FD019902462148FBF75AFD2049A9
:105380002046FBF741FD1F481F4CFBF773FC1F49EC
:105390001C48FBF791FC1E491A48FBF758FC1948BA
:1053A0002946FBF78FFD17491548FBF72DFD1548DA
:1053B000FBF768FD2046FBF79FFC29462046FBF7DC
:1053C00081FD012264212046FBF76FFD2A46294614
:1053D0002046FBF72EFD4B232146094884F8303048
:1053E000FBF712FD2046FBF72BFD29462046FBF775
:1053F0006FFD0123337002B070BD00BFEC1E0020B2
:10540000B81E0020481E0020841E0020A802002094
:105410005A100108034B1B781BB103480121FBF70D
:1054200057BD7047EC1E0020B81E0020034B1B78B0
:105430001BB103480021FBF74BBD7047EC1E002059
:10544000B81E002038B50A4D2B78044608466BB1CB
:1054500064B159B1074B02221B68C4F801302270B5
:105460000023214607F0F0FF00236B7038BD00BF1A
:10547000EC1E0020E81E002037B5264C2378002BB8
:1054800045D0002843D0002941D08D884B885B1B34
:105490009BB233B10A886421521B4A4392FBF3F357
:1054A000DBB21D4A82F830306278F2B9D0ED007A72
:1054B00017EE900AFBF720F8184ACDE900011421F5
:1054C00017480AF071FB16491648FBF7C0FB154850
:1054D000FBF7D8FC61781048FBF7FAFC61781148BB
:1054E00003B0BDE83040FBF7EDBCC3EBC3035B008A
:1054F0006422B3FBF2F307EE903AF8EEE77AB3EEEC
:10550000007A77EE877A084BC3ED007AD0E703B0D4
:1055100030BD00BFEC1E0020841E00203B1001089F
:10552000EE1E0020481E0020E81E00202DE9F0415C
:10553000504E377880460C46002F40F09980002866
:1055400000F09680002900F093804B48FBF7F6FBB3
:105550002046FBF7B1FC0C2201464748FBF7A5FCAF
:1055600001214548FBF7AEFC2046FBF7A8FC0546A9
:105570004148FBF7A4FC01352D1AAAB23E48394632
:10558000FBF757FC3C492046FBF73EFC3B48FBF74A
:1055900071FB3B493948FBF78FFB3A4B98F80420E5
:1055A000364853F82210FBF752FB34483946FBF7D4
:1055B00089FC012211463148FBF73BFC2F492E485C
:1055C000FBF722FC3048FBF755FB2D492E48FBF733
:1055D00073FB2E492C48FBF73AFB39462A48FBF768
:1055E00071FC2046FBF768FC05462748FBF764FC86
:1055F000281A012281B22448FBF71BFC22491E48CD
:10560000FBF702FC2248FBF735FB1D492048FBF75E
:1056100053FB98F806201F4B1D4853F82210FBF748
:1056200016FB39461A48FBF74DFC1448FBF744FCBF
:1056300005462046FBF740FC04461348FBF73CFCBC
:10564000241A1348FBF738FC241A0C48FBF734FCE7
:10565000231A03EBD37305EB63010D48012289B2D2
:10566000FBF7E7FB0A490448FBF7CEFB0123337045
:10567000BDE8F081E81F0020B81F0020401F002077
:1056800008000020841001087C1F00205910010828
:10569000041F00208C100108134B1B7813B504461F
:1056A000FBB1F0B10279114B114853F82210FBF70E
:1056B000CEFAA2790F4B104853F82210FBF7C7FA25
:1056C0002068FAF719FF0D4ACDE9000114210C48B2
:1056D0000AF06AFA0A490B4802B0BDE81040FBF72D
:1056E000B6BA02B010BD00BFE81F00208410010848
:1056F000401F00208C100108041F00201E1001080C
:10570000E91F00207C1F00200148FBF7D8BB00BF29
:10571000B81F0020504BF0B504271F704FF0B04366
:105720008DB01A6E4D4C4E4D42F400321A661A6E10
:1057300002F400320492049A1A6E42F480221A662D
:105740001A6E02F480220392039A464A226002F5FE
:1057500080622A60DA6C42F00102DA64DA6C02F0EC
:1057600001020292029ADA6C42F00202DA64DB6C05
:1057700003F0020301932846019B05F0C9FB40F2A8
:105780005233EB60284600236B602B61AB6005F061
:10579000D1FC284605F0FEFC024600B1FEE7602180
:1057A00040F2A913CDE90513CDE90700CDE9097051
:1057B0000B9005A9284605F085FD064600B1FEE7D9
:1057C0002A68136A43F0050313620146284605F070
:1057D00037FE204605F09CFB43F290352046C4E995
:1057E0000166C4E90356666105F0A4FC204605F095
:1057F000D1FC024600B1FEE7CDE90505CDE9070081
:10580000CDE909700B9005A9204605F05BFD024625
:1058100000B1FEE721680B6A43F005030B62014605
:10582000192002F09DFB192002F0CCFB23685A6C72
:1058300042F400425A64196A41F21112114208D12D
:10584000196A40F24442114202BF1A6822F0010272
:105850001A600DB0F0BD00BFE420002054200020ED
:10586000082000200044014070B5254A254D1378DA
:105870002549E3B125482B880088984217D3002298
:105880000A705A09C2F11002D2B2214903F01F0373
:1058900051F82210012202FA03F30B4214BF5020E8
:1058A000402000F0CDF82B8801332B8070BD194EBD
:1058B0000024012330460B70147005F00FFB164BCB
:1058C0002C801C70154B1C80154B40201C8000F058
:1058D000B7F83368196A41F21112114208D1196AF6
:1058E00040F24442114202BF1A6822F001021A60DB
:1058F000BDE870400B480022022102F0D3BD00BF7A
:1059000005200020FE1F0020F6150020F4150020C1
:10591000A02000205420002004200020002000208F
:1059200002200020001C0048084B09481A8853092F
:10593000C3F1100310B5DBB202F01F0150F8234091
:1059400001228A40224340F8232010BDF415002094
:10595000A020002008B5FFF7E7FF044A13880233B0
:105960009BB21380024A138008BD00BFF4150020CB
:105970000020002008B5FFF7D7FF044A138804333E
:105980009BB21380024A138008BD00BFF4150020AB
:1059900000200020F8B51C4B1B7804460D468BB345
:1059A0001A480122022102F07DFD194B44221846BB
:1059B00000210AF005FA42F2FF12164B02640D2292
:1059C0001A802544AC420CD1FFF7AEFF124B1348AE
:1059D00001221A70036800225A62BDE8F84005F0FF
:1059E00057BA14F8017B0826FB0708D5FFF7C2FF5A
:1059F000013E16F0FF064FEA5707F5D1E2E7FFF741
:105A0000A9FFF5E7F8BD00BFF6150020001C00480F
:105A1000A0200020F41500200520002054200020A4
:105A2000054B834206D1054B1A78042A01D1FFF7B2
:105A30001BBF1B78704700BF54200020E4200020CB
:105A4000044B1A68936923F4803323F070031843DE
:105A5000906170475420002007B50021084602F0ED
:105A60004FF96946002002F091F801A9002002F0E8
:105A7000ABF80949009B0B80019B4B80002008314B
:105A800002F08CF908B100F0F8FD002002F0A4F952
:105A900003B05DF804FB00BFEC20002008B5014610
:105AA0000348FBF7D4F8BDE808400148FBF7C8B944
:105AB000582100202DE9F3413A4C3B48DFF80081A2
:105AC0003A4EFBF73BF9628821883748013A0139A1
:105AD00092B289B2FBF7E9F933480021FBF7F2F9FA
