:020000040800F2
:1000000000000320A5980008153F00081B3F0008CA
:10001000213F0008273F00082D3F00080000000096
:10002000000000000000000000000000D1C801082E
:10003000333F00080000000021CB0108AD8F01080C
:10004000FD980008FD980008FD980008413F000851
:10005000FD980008FD980008FD980008FD9800082C
:10006000FD980008FD980008FD980008FD9800081C
:10007000FD980008FD980008FD980008FD9800080C
:10008000FD980008FD980008FD980008FD980008FC
:10009000FD980008FD980008FD980008FD980008EC
:1000A000FD9800084D3F0008FD980008FD980008E5
:1000B000613F0008FD980008FD980008FD980008C1
:1000C000FD980008FD980008FD980008FD980008BC
:1000D000FD980008FD980008FD980008FD980008AC
:1000E000AD3F0008FD980008FD980008FD98000845
:1000F000753F0008813F00088D3F0008FD9800080B
:10010000FD980008FD980008FD980008FD9800087B
:10011000FD980008FD980008FD980008FD9800086B
:10012000FD980008FD980008993F0008FD98000818
:0C013000FD980008FD980008FD980008EC
:1001400010B5054C237833B9044B13B10448AFF311
:1001500000800123237010BDC01A002000000000A1
:10016000040C020808B5034B1BB103490348AFF365
:10017000008008BD00000000C41A0020040C020822
:1001800001F0FF01102A2BDB10F0070F08D010F848
:10019000013B013A8B422DD010F0070F42B3F6D14C
:1001A000F0B441EA012141EA014122F007047FF065
:1001B00000070023F0E80256083C85EA010586EABC
:1001C000010685FA47F5A3FA87F586FA47F6A5FAF8
:1001D00087F68EB9EED1F0BC01F0FF0102F0070204
:1001E00032B110F8013B013A83EA010313B1F8D1AF
:1001F0000020704701387047002D06BF3546033890
:10020000073815F0010F07D1013015F4807F02BFC8
:10021000013015F4C03F0130F0BC0138704700BF19
:10022000034613F8012B002AFBD1181A0138704736
:1002300081F0004102E000BF83F0004330B54FEA97
:1002400041044FEA430594EA050F08BF90EA020F04
:100250001FBF54EA000C55EA020C7FEA645C7FEA97
:10026000655C00F0E2804FEA5454D4EB5555B8BFBA
:100270006D420CDD2C4480EA020281EA030382EA2B
:10028000000083EA010180EA020281EA0303362DBD
:1002900088BF30BD11F0004F4FEA01314FF4801C90
:1002A0004CEA113102D0404261EB410113F0004FA2
:1002B0004FEA03334CEA133302D0524263EB430359
:1002C00094EA050F00F0A780A4F10104D5F1200EF7
:1002D0000DDB02FA0EFC22FA05F2801841F1000152
:1002E00003FA0EF2801843FA05F359410EE0A5F126
:1002F00020050EF1200E012A03FA0EFC28BF4CF057
:10030000020C43FA05F3C01851EBE37101F000450C
:1003100007D54FF0000EDCF1000C7EEB00006EEB19
:100320000101B1F5801F1BD3B1F5001F0CD34908A3
:100330005FEA30004FEA3C0C04F101044FEA4452FA
:1003400012F5800F80F09A80BCF1004F08BF5FEA81
:10035000500C50F1000041EB045141EA050130BD61
:100360005FEA4C0C404141EB0101013C28BFB1F573
:10037000801FE9D291F0000F04BF01460020B1FABE
:1003800081F308BF2033A3F10B03B3F120020CDA91
:100390000C3208DD02F1140CC2F10C0201FA0CF06F
:1003A00021FA02F10CE002F11402D8BFC2F1200CD4
:1003B00001FA02F120FA0CFCDCBF41EA0C0190408A
:1003C000E41AA2BF01EB0451294330BD6FEA0404D3
:1003D0001F3C1CDA0C340EDC04F11404C4F12002BE
:1003E00020FA04F001FA02F340EA030021FA04F3D0
:1003F00045EA030130BDC4F10C04C4F1200220FA27
:1004000002F001FA04F340EA0300294630BD21FA64
:1004100004F0294630BD94F0000F83F4801306BF2A
:1004200081F480110134013D4EE77FEA645C18BF1E
:100430007FEA655C29D094EA050F08BF90EA020FB5
:1004400005D054EA000C04BF1946104630BD91EAAD
:10045000030F1EBF0021002030BD5FEA545C05D1B0
:100460004000494128BF41F0004130BD14F58004EF
:100470003CBF01F5801130BD01F0004545F0FE4163
:1004800041F470014FF0000030BD7FEA645C1ABF98
:10049000194610467FEA655C1CBF0B46024650EACF
:1004A000013406BF52EA033591EA030F41F40021FB
:1004B00030BD00BF90F0000F04BF0021704730B581
:1004C0004FF4806404F132044FF000054FF0000156
:1004D00050E700BF90F0000F04BF0021704730B517
:1004E0004FF4806404F1320410F0004548BF4042EC
:1004F0004FF000013EE700BF42004FEAE2014FEA41
:1005000031014FEA02701FBF12F07F4393F07F4F1B
:1005100081F06051704732F07F4208BF704793F01E
:100520007F4F04BF41F40021704730B54FF4607431
:1005300001F0004521F000411CE700BF50EA010234
:1005400008BF704730B54FF000050AE050EA0102DD
:1005500008BF704730B511F0004502D5404261EB4D
:1005600041014FF4806404F132045FEA915C3FF48E
:10057000D8AE4FF003025FEADC0C18BF03325FEA2B
:10058000DC0C18BF033202EBDC02C2F1200300FADC
:1005900003FC20FA02F001FA03FE40EA0E0021FA01
:1005A00002F11444BDE600BF70B54FF0FF0C4CF4EF
:1005B000E06C1CEA11541DBF1CEA135594EA0C0FA1
:1005C00095EA0C0F00F0DEF82C4481EA030621EADC
:1005D0004C5123EA4C5350EA013518BF52EA033517
:1005E00041F4801143F4801338D0A0FB02CE4FF0C9
:1005F0000005E1FB02E506F00042E0FB03E54FF0F9
:100600000006E1FB03569CF0000F18BF4EF0010EF0
:10061000A4F1FF04B6F5007F64F5407404D25FEAEC
:100620004E0E6D4146EB060642EAC62141EA55519F
:100630004FEAC52040EA5E504FEACE2EB4F1FD0CE1
:1006400088BFBCF5E06F1ED8BEF1004F08BF5FEA5F
:10065000500E50F1000041EB045170BD06F0004611
:1006600046EA010140EA020081EA0301B4EB5C04BE
:10067000C2BFD4EB0C0541EA045170BD41F48011B6
:100680004FF0000E013C00F3AB8014F1360FDEBFDB
:10069000002001F0004170BDC4F10004203C35DAB7
:1006A0000C341BDC04F11404C4F1200500FA05F33A
:1006B00020FA04F001FA05F240EA020001F00042DB
:1006C00021F0004110EBD37021FA04F642EB060151
:1006D0005EEA430E08BF20EAD37070BDC4F10C047B
:1006E000C4F1200500FA04F320FA05F001FA04F23F
:1006F00040EA020001F0004110EBD37041F100012B
:100700005EEA430E08BF20EAD37070BDC4F1200535
:1007100000FA05F24EEA020E20FA04F301FA05F29D
:1007200043EA020321FA04F001F0004121FA04F245
:1007300020EA020000EBD3705EEA430E08BF20EA15
:10074000D37070BD94F0000F0FD101F0004640004F
:1007500041EB010111F4801F08BF013CF7D041EAD1
:10076000060195F0000F18BF704703F000465200D5
:1007700043EB030313F4801F08BF013DF7D043EAA6
:100780000603704794EA0C0F0CEA135518BF95EA5C
:100790000C0F0CD050EA410618BF52EA4306D1D1E3
:1007A00081EA030101F000414FF0000070BD50EA02
:1007B000410606BF1046194652EA430619D094EA8C
:1007C0000C0F02D150EA013613D195EA0C0F05D176
:1007D00052EA03361CBF104619460AD181EA0301CA
:1007E00001F0004141F0FE4141F470014FF0000082
:1007F00070BD41F0FE4141F4780170BD70B54FF01D
:10080000FF0C4CF4E06C1CEA11541DBF1CEA13559C
:1008100094EA0C0F95EA0C0F00F0A7F8A4EB05047E
:1008200081EA030E52EA03354FEA013100F0888075
:100830004FEA03334FF0805545EA131343EA12633E
:100840004FEA022245EA111545EA10654FEA0026F3
:100850000EF000419D4208BF964244F1FD0404F5AC
:10086000407402D25B084FEA3202B61A65EB030508
:100870005B084FEA32024FF480104FF4002CB6EBC5
:10088000020E75EB030E22BFB61A754640EA0C0045
:100890005B084FEA3202B6EB020E75EB030E22BF85
:1008A000B61A754640EA5C005B084FEA3202B6EBC6
:1008B000020E75EB030E22BFB61A754640EA9C0085
:1008C0005B084FEA3202B6EB020E75EB030E22BF55
:1008D000B61A754640EADC0055EA060E18D04FEA13
:1008E000051545EA16754FEA06164FEAC30343EAB3
:1008F00052734FEAC2025FEA1C1CC0D111F4801F80
:100900000BD141EA00014FF000004FF0004CB6E778
:1009100011F4801F04BF01430020B4F1FD0C88BF17
:10092000BCF5E06F3FF6AFAEB5EB030C04BFB6EB22
:10093000020C5FEA500C50F1000041EB045170BD15
:100940000EF0004E4EEA113114EB5C04C2BFD4EB42
:100950000C0541EA045170BD41F480114FF0000EC6
:10096000013C90E645EA060E8DE60CEA135594EA42
:100970000C0F08BF95EA0C0F3FF43BAF94EA0C0F45
:100980000AD150EA01347FF434AF95EA0C0F7FF4BA
:1009900025AF104619462CE795EA0C0F06D152EA0E
:1009A00003353FF4FDAE1046194622E750EA4106F2
:1009B00018BF52EA43067FF4C5AE50EA41047FF403
:1009C0000DAF52EA43057FF4EBAE12E74FF0FF3C68
:1009D00006E000BF4FF0010C02E000BF4FF0010C39
:1009E0004DF804CD4FEA410C7FEA6C5C4FEA430CB2
:1009F00018BF7FEA6C5C1BD001B050EA410C0CBF01
:100A000052EA430C91EA030F02BF90EA020F002062
:100A1000704710F1000F91EA030F58BF994208BFC9
:100A200090422CBFD8176FEAE37040F00100704786
:100A30004FEA410C7FEA6C5C02D150EA013C07D1DD
:100A40004FEA430C7FEA6C5CD6D152EA033CD3D028
:100A50005DF8040B704700BF8446104662468C4622
:100A60001946634600E000BF01B5FFF7B7FF002855
:100A700048BF10F1000F01BD4DF808EDFFF7F4FF7E
:100A80000CBF012000205DF808FB00BF4DF808ED09
:100A9000FFF7EAFF34BF012000205DF808FB00BF2C
:100AA0004DF808EDFFF7E0FF94BF012000205DF84E
:100AB00008FB00BF4DF808EDFFF7CEFF94BF012003
:100AC00000205DF808FB00BF4DF808EDFFF7C4FFFC
:100AD00034BF012000205DF808FB00BF4FEA410C45
:100AE0007FEA6C5C02D150EA013C0AD14FEA430C28
:100AF0007FEA6C5C02D152EA033C02D14FF0000065
:100B000070474FF0010070474FEA410212F50012A2
:100B100015D211D56FF47873B3EB625212D94FEA44
:100B2000C12343F0004343EA505311F0004F23FA2E
:100B300002F018BF404270474FF00000704750EA83
:100B4000013005D111F0004008BF6FF00040704740
:100B50004FF00000704700BF53B94AB9002908BFE1
:100B600000281CBF4FF0FF314FF0FF3000F070B98C
:100B7000ADF1080C6DE904CE00F006F8DDF804E0F4
:100B8000DDE9022304B070472DE9F047089E0D46C9
:100B900004460F46002B4AD18A42944665D9B2FAE0
:100BA00082F343B102FA03FCC3F120029F4020FA12
:100BB00002F217439C404FEA1C4E1FFA8CF5B7FB1C
:100BC000FEF1220C0EFB117742EA074201FB05F011
:100BD00090420AD91CEB020201F1FF3780F01C8120
:100BE000904240F2198102396244121AA4B2B2FB57
:100BF000FEF00EFB102244EA024400FB05F5A5427C
:100C00000AD91CEB040400F1FF3280F00781A542F1
:100C100040F204816444023840EA0140641B002130
:100C20001EB1DC400023C6E90043BDE8F0878B42DB
:100C300008D9002E00F0ED800021C6E90005084625
:100C4000BDE8F087B3FA83F1002949D1AB4202D362
:100C5000824200F2F880841A65EB030201201746F5
:100C6000002EE2D0C6E90047DFE702B9FFDEB2FAA4
:100C700082F3002B40F090808A1A4FEA1C471FFA3B
:100C80008CFE0121B2FBF7F507FB1520220C42EA8E
:100C900000420EFB05F0904208D91CEB020205F160
:100CA000FF3802D2904200F2CB804546121AA4B21D
:100CB000B2FBF7F007FB102244EA02440EFB00FEF1
:100CC000A64508D91CEB040400F1FF3202D2A64568
:100CD00000F2BB801046A4EB0E0440EA05409FE7FB
:100CE000C1F120078B4022FA07FC4CEA030C05FAFD
:100CF00001F420FA07F3FD404FEA1C492343B5FBFA
:100D0000F9F81FFA8CFE09FB18551C0C44EA05443F
:100D100008FB0EF5A54202FA01F200FA01F00BD928
:100D20001CEB040408F1FF3A80F08880A54240F2F1
:100D30008580A8F102086444641B9DB2B4FBF9F3FA
:100D400009FB134445EA044403FB0EFEA64508D9FB
:100D50001CEB040403F1FF356CD2A6456AD9023BB3
:100D6000644443EA0843A3FB0295A4EB0E04AC429F
:100D7000C846AE4656D353D056B1B0EB080264EB2A
:100D80000E0404FA07F7CA40CC401743C6E90074C2
:100D900018460021BDE8F087C3F1200102FA03FCE8
:100DA00020FA01F225FA01F19D402A434FEA1C473F
:100DB0001FFA8CFEB1FBF7F007FB1015110C41EA8E
:100DC000054100FB0EF58D4204FA03F408D91CEB33
:100DD000010100F1FF382FD28D422DD90238614434
:100DE000491B92B2B1FBF7F507FB151142EA01422C
:100DF00005FB0EF1914208D91CEB020205F1FF3808
:100E000016D2914214D9023D6244521A45EA004179
:100E100038E73146304608E73946E6E61046FBE655
:100E20004845A9D2B9EB020865EB0C0E013BA3E7DC
:100E30004546EAE72B4694E74046D1E7D0467BE7B4
:100E4000023D624432E708460AE76444023842E75A
:100E5000704700BF80B487B000AFF8600846114605
:100E60001A4603467B810B463B811346FB717A8908
:100E70003B89DB089BB21946FB681B8801FB03F327
:100E800013447B613B8903F00703012202FA03F359
:100E9000FB74FB79012B0DD1FB689A687B691344C5
:100EA0001978FB689A687B691344FA7C0A43D2B2CA
:100EB0001A7011E0FB689A687B6913441B785AB278
:100EC00097F91330DB435BB2134059B2FB689A6861
:100ED0007B691344CAB21A7000BF1C37BD465DF867
:100EE000047B704780B584B000AFF86008461146B7
:100EF0001A4603467B810B463B811346FB71FB6818
:100F00009A887B89134499B2FB68DA883B89134439
:100F10009AB2FB79F868FFF79DFF00BF1037BD4616
:100F200080BD90B587B002AFF860084611461A46FA
:100F300003467B810B463B811346FB80FB68002BFD
:100F40001DD0FB689A887B89134499B2FB68DA88C4
:100F50003B89134498B2FB689A88FB8813449CB27F
:100F6000FB68DA883B8C13449BB297F824200192EB
:100F7000009323460246F86800F04AF800E000BFFC
:100F80001437BD4690BD90B587B002AFF8600846F3
:100F900011461A4603467B810B463B811346FB8074
:100FA000FB68002B1DD0FB689A887B89134499B29B
:100FB000FB68DA883B89134498B2FB689A88FB88FF
:100FC00013449CB2FB68DA883B8C13449BB297F8BD
:100FD00024200192009323460246F86800F020F98D
:100FE00000E000BF1437BD4690BD80B485B000AFAF
:100FF00078607B68FB60FB68002B02DAFB685B4271
:10100000FB60FB6818461437BD465DF8047B7047EB
:1010100080B590B002AFF860084611461A46034604
:101020007B810B463B811346FB80FB681B887A89DA
:101030009A4280F0ED80FB685B883A899A4280F0A2
:10104000E9807A89FB889A4200F2E6803A89B7F80B
:1010500040309A4200F2E080FB88FB86B7F84030CF
:10106000BB86FB681B88FA8E9A4203D3FB681B88F9
:10107000013BFB86FB685B88BA8E9A4203D3FB6810
:101080005B88013BBB867B89DB087B867B8903F021
:101090000703BB84002387F8233000233B84BB8CE9
:1010A000002B02D07B8E01337B86FB8EDB083B86D8
:1010B000FB8E03F00703FB83FB8B002B0AD03A8ED9
:1010C0007B8E9A4203D1012387F8233002E03B8EC6
:1010D000013B3B86012387F8233097F82330002B10
:1010E00077D1BA8E3B89D31A0133BB61002387F8CD
:1010F0002F3097F84430012B02D1FF2387F82F308F
:101100003A8E7B8ED31A9BB201333B840023BB857E
:1011100016E0FB689B68798EB88D3A890244F868BE
:101120000088C00880B200FB02F20A44134497F81A
:101130002F103A8C18461DF0A1FCBB8D0133BB85E6
:10114000BB8DBA699A42E4DC7B8EDB00FB82002314
:101150007B8514E07A897B8D134499B27A897B8DE3
:10116000134498B23A8997F844300193BB8E0093A8
:101170000346F86800F0D2F87B8D01337B857A8DC9
:10118000F98A7B89CB1A9A42E4DB3B8E01339BB20E
:10119000DB00BB8200233B8514E0BA8A3B8D1344FD
:1011A00099B2BA8A3B8D134498B23A8997F8443081
:1011B0000193BB8E00930346F86800F0AFF83B8DB7
:1011C00001333B853A8DF98EBB8ACB1A9A42E4DD16
:1011D00023E00023FB8414E07A89FB8C134499B24A
:1011E0007A89FB8C134498B23A8997F8443001937A
:1011F000BB8E00930346F86800F090F8FB8C013337
:10120000FB84FA8CF98E7B89CB1A9A42E4DD04E0E8
:1012100000BF02E000BF00E000BF3837BD4680BD20
:1012200080B588B002AFF860084611461A460346FA
:101230007B810B463B811346FB80FB681B887A89C8
:101240009A4261D2FB685B883A899A425ED27A8977
:10125000FB889A425CD83A893B8C9A4258D8FB88E2
:10126000FB823B8CBB820023FB740023BB74FB68B6
:101270001B88FA8A9A4205D30123FB74FB681B88FA
:10128000013BFB82FB685B88BA8A9A4205D3012343
:10129000BB74FB685B88013BBB82F88A3A89798919
:1012A00097F8243001933B8900930346F86800F0D7
:1012B00035F8BB7C002B0BD1F88ABA8A798997F86C
:1012C00024300193BB8A00930346F86800F026F8A7
:1012D00078893A89798997F824300193BB8A0093F9
:1012E0000346F86800F01AF8FB7C002B12D1F88A4C
:1012F0003A89F98A97F824300193BB8A0093034610
:10130000F86800F00BF805E000BF04E000BF02E061
:1013100000BF00E000BF1837BD4680BD80B58AB071
:1013200000AFF860084611461A4603467B810B461B
:101330003B811346FB80FA887B89D31A1846FFF756
:1013400054FE38627A89FB889A4201D2012301E077
:101350004FF0FF33FB613A8E3B89D31A1846FFF7F3
:1013600044FE03465B42BB613A893B8E9A4201D2FE
:10137000012301E04FF0FF337B613A6ABB691344FC
:101380007B6200233B6197F834303A897989F868A9
:10139000FFF760FD7A89FB889A4203D13A893B8E38
:1013A0009A421DD07B6A5B003B613A69BB699A42F5
:1013B00008DB7A6ABB6913447B62FB699AB27B895A
:1013C00013447B813A693B6A9A42DCDC7A6A3B6A65
:1013D00013447B627B699AB23B8913443B81D2E719
:1013E00000BF00BF2837BD4680BD80B588B002AFC2
:1013F000F860084611461A4603467B810B463B813E
:101400001346FB71FB68002B00F095803B6A002BB4
:1014100000F093807B6A002B00F091807B893A6A10
:1014200052781344FA681288934280F28A803B898A
:101430003A6A12781344FA685288934280F28180A3
:101440007B6A1B78002B7ED097F82830002B07D1C1
:101450007B6A1B780D2B78D07B6A1B780A2B74D0A3
:101460000023FB820023BB820023FB7400233B820A
:101470003B8A7A6A13441B78202B19D0202B21DC5D
:101480000D2B05D00D2B1DDC002B18D00A2B19D1EC
:1014900097F82830002B02D10123FB742EE00023A3
:1014A000FB823B6A1B789AB2BB8A1344BB8225E05D
:1014B0003B6A5B789AB2FB8A1344FB821EE00123ED
:1014C000FB741BE07A89FB8A134499B23A89BB8A80
:1014D000134498B23B8A7A6A13441B78FA790193D1
:1014E0003B6A009313460246F86800F032F83B6A04
:1014F0005B789AB2FB8A1344FB8200BF3B8A0133BC
:101500003B827A89FB8A13443A6A52781344FA6818
:101510001288934209DA3A89BB8A13443A6A1278EC
:101520001344FA685288934201DB0123FB74FB7C6D
:10153000002B9DD00AE000BF08E000BF06E000BF1E
:1015400004E000BF02E000BF00E000BF1837BD4666
:1015500080BD80B586B000AFF860084611461A46D7
:1015600003467B810B463B811346FB7197F8243081
:10157000FB753B6ADB7897F824209A4205D33B6AD7
:101580001B7997F824209A4202D93B6A5B79FB7554
:101590000023BB8233E03B6A9B68FA7D396AC978D5
:1015A000521A396A097802FB01F1BA8A0A441344D3
:1015B0001B787B7400237B8218E07A7C7B8AC3F1E2
:1015C000070342FA03F303F00103002B0BD07A89DF
:1015D0007B8A134499B23A89BB8A13449AB2FB7945
:1015E000F868FFF77FFC7B8A01337B823B6A5B787C
:1015F0009BB27A8A9A42E0D3BB8A0133BB823B6AB0
:101600001B789BB2BA8A9A42C5D300BF00BF183775
:10161000BD4680BD80B582B000AF78607B68002B8E
:101620001AD07B68184600F02FF97B6801221A76E1
:101630007B680B4ADA617B680A4A1A627B680A4A4D
:101640005A637B68012283F83A200849786800F0E1
:101650000FF8786800F087F800BF0837BD4680BDF6
:10166000EB16000847170008A8120020200C0208FB
:1016700080B582B000AF786039607B68002B16D0EF
:101680003B68002B13D07B683A681A637B681B6B3E
:101690001846FEF7C5FD03469AB27B681A877B6839
:1016A00093F83A30002B02D0786800F05CF800BF65
:1016B0000837BD4680BD80B582B000AF7860396024
:1016C0007B68002B0DD03B68002B0AD07B683A6802
:1016D0005A637B6893F83A30002B02D0786800F0A8
:1016E00042F800BF0837BD4680BDB0B586B004AF34
:1016F000786039607B681A887B689B8913449AB24A
:101700007B681B7D9BB2134499B27B685A887B68C7
:10171000DB8913449AB27B681B7D9BB2134498B259
:101720007B68DC7D7B685B6B7A68126B00250295B9
:1017300001920093234602463868FFF756FE00BF29
:101740000837BD46B0BD80B582B000AF78607B6819
:1017500093F83A30002B02D0786800F004F800BF0C
:101760000837BD4680BD80B584B000AF78607B6827
:101770001A8F7B685B6B5B789BB212FB03F39AB2A8
:101780007B689B8913449AB27B681B8A13449AB284
:101790007B681B7D9BB25B009BB21344FB817B6823
:1017A0005B6B1B789AB27B68DB8913449AB27B68C7
:1017B0005B8A13449AB27B681B7D9BB25B009BB231
:1017C0001344BB817B685B89BA899A4204D17B68E8
:1017D0001B89FA899A4205D07B68BA89F98918462B
:1017E00000F015FA00BF1037BD4680BD80B582B04D
:1017F00000AF78607B68002B0DD07B68184600F046
:1018000043F87B6803221A767B68054ADA617B68B5
:10181000002283F8302000BF0837BD4680BD00BFDE
:101820002518000890B587B002AF786039607B68F2
:1018300093F83030002B21D07B681B891A467B68D7
:1018400093F8303002FB03F31A460E4BA3FB02233E
:101850005B09FB817B6819887B6858887B681A88DC
:10186000FB8913449CB27B68DB887A68D27D019245
:101870000093234602463868FFF753FB00BF143736
:10188000BD4690BD1F85EB5180B582B000AF78603A
:101890007B68002B1CD03022002178681DF0EEF808
:1018A0007B680022DA757B6801229A757B680122C9
:1018B0001A757B6802229A817B680222DA817B6832
:1018C00002221A827B6802225A827B6801225A769F
:1018D00000BF0837BD4680BD90B589B002AF7860C3
:1018E00039607B68002B00F092803B68002B00F091
:1018F0008E807B685B7E002B00F089807B68DB7EBE
:1019000083F00103DBB2002B78D07B689B7E83F0F1
:101910000103DBB2002B10D07B6819887B685888E4
:101920007B689C887B68DB887A68927D0192009353
:10193000234602463868FFF7F4FA0123FB752BE0D3
:101940007B681A88FB7D9BB213449BB2013B99B222
:101950007B685A88FB7D9BB213449BB2013B98B2D3
:101960007B689A88FB7D9BB2D31A9BB201339CB2F1
:101970007B68DA88FB7D9BB2D31A9BB201339BB2A2
:101980007A68D27D01920093234602463868FFF7B9
:10199000FAFAFB7D0133FB757B681B7DFA7D9A4269
:1019A000CED97B689B6A3B613B69002B26D03B68A4
:1019B0009B88FB813B68DB88BB813B689A887B689E
:1019C0001B8813449AB23B689A803B68DA887B682C
:1019D0005B8813449AB23B68DA8006E0396838695C
:1019E000FFF77AFF3B69DB6A3B613B69002BF5D16E
:1019F0003B68FA899A803B68BA89DA807B68DB6940
:101A0000002B04D07B68DB6939687868984700BF91
:101A10001C37BD4690BD80B485B000AF786039609A
:101A20007B68002B2CD03B68002B29D03B685B6A7D
:101A3000002B25D10023FB607B689B6ABB600AE01A
:101A40003B685A7DBB685B7D9A4208D8BB68FB60E7
:101A5000BB68DB6ABB60BB68002BF1D100E000BF54
:101A6000FB68002B03D17B683A689A6202E0FB684E
:101A70003A68DA623B68BA68DA623B687A685A6246
:101A800000BF1437BD465DF8047B704780B582B057
:101A900000AF78600B467B8013463B807B68002B51
:101AA00009D07B687A881A807B683A885A8000213E
:101AB000786800F04FF900BF0837BD4680BD80B59B
:101AC00084B000AF78607B68002B27D07B685B6AAE
:101AD000002B25D0786800F0B3F80346BB817B6803
:101AE0005B6A184600F0ACF803467B810023FB815B
:101AF000BA897B899A4206D27A89BB89D31ADA0FCE
:101B000013445B10FB81786800F06EF803461A46B8
:101B1000FB8919467868FFF7B9FF02E000BF00E0D3
:101B200000BF1037BD4680BD80B584B000AF78607F
:101B30007B68002B27D07B685B6A002B25D07868F8
:101B400000F091F80346BB817B685B6A184600F0A1
:101B50008AF803467B810023FB81BA897B899A42FC
:101B600006D27A89BB89D31ADA0F13445B10FB8142
:101B7000786800F026F803461946FB891A4678680B
:101B8000FFF784FF02E000BF00E000BF1037BD4652
:101B900080BD80B582B000AF78607B68002B0AD032
:101BA0007B685B6A002B08D07868FFF788FF78684D
:101BB000FFF7BAFF02E000BF00E000BF0837BD46F4
:101BC00080BD80B485B000AF78600023FB817B6866
:101BD000002B02D07B681B88FB81FB8918461437D9
:101BE000BD465DF8047B704780B485B000AF786077
:101BF0000023FB817B68002B02D07B685B88FB8124
:101C0000FB8918461437BD465DF8047B704780B5E4
:101C100082B000AF78600B467B8013463B807B68C8
:101C2000002B09D07B687A881A817B683A885A81B0
:101C30000121786800F08EF800BF0837BD4680BDEE
:101C400080B485B000AF78600023FB817B68002BF7
:101C500002D07B681B89FB81FB8918461437BD467F
:101C60005DF8047B704780B485B000AF78600023D6
:101C7000FB817B68002B02D07B685B89FB81FB8941
:101C800018461437BD465DF8047B704780B582B0B6
:101C900000AF78600B46FB707B68002B06D07B683A
:101CA000FA781A750121786800F054F800BF0837F7
:101CB000BD4680BD80B483B000AF78600B46FB703A
:101CC0007B68002B02D07B68FA785A7600BF0C370D
:101CD000BD465DF8047B704780B584B000AF786086
:101CE0000B46FB707B68002B11D07B68FA78DA75A5
:101CF0007B689B6AFB6007E0FB781946F868FFF792
:101D0000EBFFFB68DB6AFB60FB68002BF4D100BFD4
:101D10001037BD4680BD80B584B000AF78600B46FB
:101D2000FB707B68002B11D07B68FA789A757B6812
:101D30009B6AFB6007E0FB781946F868FFF7EBFF4A
:101D4000FB68DB6AFB60FB68002BF4D100BF103737
:101D5000BD4680BD80B582B000AF78600B46FB7099
:101D60007B681A887B681B8913449AB27B689A80C7
:101D70007B685A887B685B8913449AB27B68DA80F7
:101D8000FB78002B07D07B681B6A002B03D07B6895
:101D90001B6A7868984700BF0837BD4680BD0000C1
:101DA000B0B588B000AF0B4B3C1D1D460FCD0FC426
:101DB00095E8070003C422800234130C237016F048
:101DC00059FF3B1D184616F0EAF900BF2037BD4603
:101DD000B0BD00BF240C020880B483B000AF7860AF
:101DE000074BD3F8803023F0070205497B68134383
:101DF000C1F8803000BF0C37BD465DF8047B7047EA
:101E00000004005880B483B000AF7860064BD3F86C
:101E1000902005497B681343C1F8903000BF0C3710
:101E2000BD465DF8047B70470008005880B483B05D
:101E300000AF78604FF0B0430A4AC3F89C204FF0DF
:101E4000B043D3F89C3023F47C527B681B024FF0E4
:101E5000B0411343C1F89C3000BF0C37BD465DF85C
:101E6000047B7047FECAFECA80B483B000AF7860BE
:101E70004FF0B0439B6823F400424FF0B0417B68C1
:101E800013438B6000BF0C37BD465DF8047B704781
:101E900080B400AF044B1B68C3F30B031846BD4668
:101EA0005DF8047B704700BF002004E080B400AF01
:101EB000044B1B681B0C9BB21846BD465DF8047BA7
:101EC000704700BF002004E080B400AF054B1B69E1
:101ED000044A23F00403136100BFBD465DF8047B90
:101EE000704700BF00ED00E080B483B000AF7860C1
:101EF0007B68FF225A6200BF0C37BD465DF8047B49
:101F0000704780B483B000AF78607B68CA225A62A1
:101F10007B6853225A6200BF0C37BD465DF8047BD4
:101F2000704780B483B000AF786039607B689B688D
:101F300023F007023B681A437B689A6000BF0C37A6
:101F4000BD465DF8047B704780B500AF044B4FF48D
:101F500000421A6100F024F800F029F800BF80BDAB
:101F60000040005880B500AF00F035F800F04EF8A2
:101F70000349002001F016F800F056F800BF80BDBC
:101F80002C1C002080B400AF00BFBD465DF8047B70
:101F9000704780B500AF5020FFF734FF00BF80BD11
:101FA00080B400AF00BFBD465DF8047B704780B5CC
:101FB00082B000AF002016F0E9FE78607B68002B4D
:101FC00005D07B689B791846FFF730FF00BF00BF44
:101FD0000837BD4680BD80B500AFFFF7D3FFFFF7E0
:101FE000D8FF00F003F800BF80BD000080B500AF4F
:101FF0000548FFF786FF00210348FFF792FF0248DC
:10200000FFF772FF00BF80BD0028004080B500AF21
:102010004FF40040FFF728FF1BF05EFE0420FFF79F
:10202000DBFE00BF80BD000080B588B000AF16F0B9
:102030006BFC002017F09AF90346174A1360002240
:102040000021012017F0A0FA0346144A1360144A35
:102050000021144817F00EF80346134A1360134B7F
:102060003B60134B7B603B461946124816F00EFB53
:10207000114BBB60114BFB60114B3B6140F23C5379
:102080007B6107F10803184616F080FD16F036FC58
:1020900000BF2037BD4680BDDC1A0020E01A0020BA
:1020A0000C16020817220008E41A00203407032047
:1020B000C5200008052100084C0903204008032022
:1020C000F801032080B582B000AF0346FB71FB79B5
:1020D000002B02D0012B08D00DE0094B1B684FF0FC
:1020E000FF31184617F0C8F905E0054B1B68184684
:1020F00017F00DFA00BF00BF0837BD4680BD00BF16
:10210000DC1A002080B588B000AF78607B685B681F
:102110000B33FB61FB691B889BB2A3F51243072BB2
:102120001FD801A252F823F0492100085B210008C2
:10213000632100086321000863210008632100086F
:10214000632100086321000807F10C03184616F00C
:1021500053F8786800F01BF804E0786800F006F89F
:1021600000E000BF00BF2037BD4680BD80B485B011
:1021700000AF78607B685B680B33FB60FB68023301
:10218000BB6000BF1437BD465DF8047B704780B567
:102190008AB000AF786007F1080300221A605A6025
:1021A0009A60DA6000237B6200233B627B685B6895
:1021B0000B33FB61FB690233BB61BB691B78002BEE
:1021C0001DD1FFF7EDFD0F233B727F23BB72FFF79D
:1021D0006DFE78627B6A9BB2BB82FFF759FE386264
:1021E0003B6A9BB2FB8207F10803184615F0EEFF2D
:1021F0001AF068FF002101201BF080FD07E0BB6999
:102200001B78012B03D17B6800221A7000BF00BF2E
:102210002837BD4680BD80B582B000AF78604FF0F2
:10222000FF320021012017F005F816F04BFAF6E70F
:1022300080B584B000AF78600DF0EEF8B8607B68D0
:10224000FB60FB68B3F1FF3F0AD00DF0FDF80346D9
:102250001A46FB681344FB6002E0FFF735FE30BF0F
:102260000DF0DAF80246BB68D31AFA689A42F4D83D
:1022700000BF00BF1037BD4680BD000080B582B0F2
:1022800000AF7860044B1B680121184616F084FFEC
:1022900000BF0837BD4680BDE41A002080B582B07B
:1022A00000AF7860044B1B68184617F049FA00BF6E
:1022B0000837BD4680BD00BFE01A002080B582B05F
:1022C00000AF7860054B1B684FF0FF31184617F0E0
:1022D000E5F900BF0837BD4680BD00BFE01A002009
:1022E00080B500AF044A0021044816F0C3FE03463F
:1022F000034A136000BF80BD3016020805230008A2
:10230000E81A002080B582B000AF7860012017F095
:1023100012F8FBE780B485B000AF78604FF0B043AF
:102320009A6C4FF0B0417B6813438B644FF0B0431D
:102330009A6C7B681340FB60FB6800BF1437BD4696
:102340005DF8047B704780B500AF0420FFF7E2FF23
:102350000220FFF7DFFF002205213A200DF098F957
:102360003A200DF0AFF900BF80BD80B485B000AF5A
:1023700078604FF0B043DA6C4FF0B0417B681343A4
:10238000CB644FF0B043DA6C7B681340FB60FB68B2
:1023900000BF1437BD465DF8047B704780B586B03A
:1023A00000AF3B1D00221A605A609A60DA601A6121
:1023B0000120FFF7DAFF0420FFF7D7FF0220FFF725
:1023C000D4FF0820FFF7D1FF1020FFF7CEFF8020B9
:1023D000FFF7CBFF00220121BE480DF013FE0122C2
:1023E0000221BC480DF00EFE00224FF44071BA48A5
:1023F0000DF008FE00224FF48071B8480DF002FE87
:1024000000220421B6480DF0FDFD25237B60032347
:10241000BB600023FB603B1D19464FF090400DF060
:10242000A3FB3A237B600323BB600023FB603B1DBF
:102430001946A9480DF098FB40F604437B60002341
:10244000BB600023FB603B1D1946A3480DF08CFBCD
:102450004FF400737B600223BB600023FB6000230A
:102460003B6108237B613B1D19469E480DF07CFBB8
:1024700001237B600223BB600023FB6000233B61E0
:1024800008237B613B1D194693480DF06DFB4FF40B
:1024900080737B601223BB600023FB6000233B61E1
:1024A00004237B613B1D19468E480DF05DFB4FF404
:1024B00081537B600223BB600023FB6000233B61F0
:1024C00008237B613B1D194686480DF04DFB4FF4F8
:1024D00000437B600223BB600023FB6000233B6161
:1024E00001237B613B1D19464FF090400DF03CFBF2
:1024F0004FF480637B601223BB600023FB600023EA
:102500003B6104237B613B1D19464FF090400DF069
:102510002BFB4FF4C0537B600223BB600023FB60A6
:1025200000233B610A237B613B1D19464FF090401D
:102530000DF01AFB03237B600223BB600023FB60CA
:1025400000233B6105237B613B1D194663480DF069
:102550000BFBC0237B600223BB600023FB600023D6
:102560003B6109237B613B1D19465B480DF0FCFA7A
:102570004FF440437B600223BB600023FB600023D9
:102580003B6105237B613B1D194656480DF0ECFA73
:1025900012237B600023BB600023FB603B1D1946B8
:1025A0004F480DF0E1FA4FF480637B600223BB607B
:1025B0000023FB6000233B6101237B613B1D194627
:1025C00048480DF0D1FA04237B600023BB60002350
:1025D000FB603B1D194643480DF0C6FA4FF44073AB
:1025E0007B600223BB600023FB6000233B6103236D
:1025F0007B613B1D19464FF090400DF0B5FA40232A
:102600007B600223BB600023FB6000233B61082347
:102610007B613B1D19464FF090400DF0A5FA082351
:102620007B600223BB600023FB6000233B610A2325
:102630007B613B1D19464FF090400DF095FA032346
:102640007B600123BB600023FB6000233B613B1DDB
:10265000194620480DF088FA4FF440437B6002236E
:10266000BB600023FB6000233B6101237B613B1DBA
:1026700019461A480DF078FA43F210037B600023E4
:10268000BB600023FB603B1D194614480DF06CFA3B
:102690004FF401737B604FF48813BB600023FB6031
:1026A0003B1D19460D480DF05FFA4FF440737B60F7
:1026B0000123BB600023FB6000233B613B1D1946E7
:1026C00005480DF051FA68237B600223BB600023AC
:1026D0000AE000BF001C004800080048000C004849
:1026E0000010004800040048FB6000233B610A23FF
:1026F0007B613B1D19461F480DF036FA08237B60AD
:102700004FF48813BB600023FB603B1D19461A4839
:102710000DF02AFA4FF480737B600123BB60002325
:10272000FB6000233B613B1D194612480DF01CFA6B
:102730004FF440637B600223BB600023FB600023F7
:102740003B6109237B613B1D19460A480DF00CFAD9
:1027500004237B600123BB600023FB6000233B61FB
:102760003B1D194604480DF0FFF900BF1837BD4660
:1027700080BD00BF000C00480010004880B483B04A
:1027800000AF7860064BD3F8802005497B6813437F
:10279000C1F8803000BF0C37BD465DF8047B704740
:1027A0000008005880B483B000AF7860054B1A6809
:1027B00004497B6813430B6000BF0C37BD465DF8CE
:1027C000047B70470008005880B483B000AF0D4B05
:1027D0009B6A9BB27B600B4B9B6A9BB23B6005E0A4
:1027E0003B687B60074B9B6A9BB23B607A683B68A7
:1027F0009A42F5D13B6818460C37BD465DF8047B1C
:10280000704700BF0028004080B485B000AF034689
:102810000A46FB711346BB71BA791D4913465B002A
:102820001344DB000B4415331B78FB73FB7B062B37
:1028300009D0FA7B164913465B001344DB000B44B6
:102840001433FA791A70FA79114913465B0013446C
:10285000DB000B441533FA7B1A70FA790C491346E6
:102860005B001344DB000B441433BA791A70BA7955
:10287000074913465B001344DB000B441533FA7918
:102880001A7000BF1437BD465DF8047B704700BF67
:10289000EC1A002080B485B000AF03460A46FB71F5
:1028A0001346BB71294B1B78DBB2BA799A4232D0FE
:1028B000BA79274913465B001344DB000B441433F9
:1028C0001B78FB73FA7B224913465B001344DB0041
:1028D0000B441533FA791A70FA791D4913465B00D7
:1028E0001344DB000B441533BA791A70FA7918498E
:1028F00013465B001344DB000B441433FA7B1A705D
:10290000BA79134913465B001344DB000B441433BC
:10291000FA791A7014E0FA790D4913465B001344F2
:10292000DB000B441533BA791A70BA79084913469B
:102930005B001344DB000B441433FA791A7000BFB8
:102940001437BD465DF8047B704700BF7C1B002038
:10295000EC1A002080B584B000AF0346FB714E4BEB
:102960001B78DBB2062B18D14B4B1B78DAB24B4BE2
:102970001A70494AFB791370FA79494913465B008A
:102980001344DB000B44153306221A70454B4FF0FD
:10299000FF321A600023FB8178E000F009F903465A
:1029A000FB81FA793E4913465B001344DB000B447C
:1029B00008331968FB89FA791944394813465B00D2
:1029C0001344DB00034408331960FA793449134691
:1029D0005B001344DB000B4408331B68BB602E4BC9
:1029E0001B78DBB219462E4A0B465B000B44DB001A
:1029F000134408331B68BA689A4237D3264B1B78B6
:102A00007B737A7B264913465B001344DB000B443F
:102A100015331B783B7313E07A7B214913465B0027
:102A20001344DB000B4415331B787B737A7B1C4902
:102A300013465B001344DB000B4415331B783B73D8
:102A40003B7B062B0BD03A7B154913465B001344A6
:102A5000DB000B4408331B68BA689A42DCD27A7BED
:102A6000FB7911461846FFF7CFFE0FE00A4B1B78A3
:102A7000DAB2FB7911461846FFF70CFF064B1B78BC
:102A8000DAB2064B1A70044AFB791370FB891846B8
:102A90001037BD4680BD00BF7C1B00207D1B002081
:102AA000EC1A0020801B002080B485B000AF0346E4
:102AB0000A46FB711346BB71394B1B78DBB2FA79BE
:102AC0009A4211D1364B1B78DAB2364B1A70FA792A
:102AD000354913465B001344DB000B4415331B7868
:102AE000DAB22F4B1A703EE0FA792F4913465B0099
:102AF0001344DB000B4414331B78FB73FA792A4927
:102B000013465B001344DB000B4415331B78BB7387
:102B1000F979FA7B24480B465B000B44DB00034445
:102B200015331B78D8B2204913465B001344DB00F1
:102B30000B44153302461A70BB7B062B13D0F97970
:102B4000BA7B19480B465B000B44DB00034414338B
:102B50001B78D8B2144913465B001344DB000B44C6
:102B6000143302461A70FA790F4913465B00134476
:102B7000DB000B440C3301221A70094B1B78DBB2CB
:102B8000062B07D1BB79002B04D1084B4FF0FF3245
:102B90001A6000BF00BF1437BD465DF8047B704764
:102BA0007C1B00207D1B0020EC1A0020801B0020D5
:102BB00080B582B000AF1A4B1B68B3F1FF3F26D03F
:102BC000FFF702FE7860164B1B687A689A4205D8B8
:102BD000134B1A687B68D31A7B600AE0114B1B8881
:102BE0001A467B68D31A3B600D4B1B683A68134446
:102BF0007B600D4B1B781A467B6802FB03F37B60FE
:102C00000A4B1B781A467B68D3407B6001E00023A7
:102C10007B607B689BB218460837BD4680BD00BF0D
:102C2000801B0020881B0020861B0020851B0020A5
:102C300080B582B000AF0346FB80FB88002B08D133
:102C4000FFF7C2FD0346214A136003200CF056FD36
:102C500039E0FB88012B03D81D4B1B78012B02D0D8
:102C6000FB88013BFB8000BF1A4B1B68DB6803F04D
:102C70000403002BF8D0174B1B68DB68DAB2154B46
:102C80001B6862F49062DA60134B4FF40022DA6042
:102C900003200CF041FD114B5B691B0C1B04FA88EF
:102CA0000E4913434B61FFF78FFD0346074A13603C
:102CB000084B1B689A68074B1B6842F480629A6055
:102CC000AFF3008000BF0837BD4680BD801B0020E9
:102CD000851B00202C1C0020000800580028004004
:102CE00080B584B000AF454B9B6803F48063B3F5B7
:102CF000806F07D100BF424B1B68DB6803F0040301
:102D0000002BF8D13E4B1B689A683D4B1B6822F4A0
:102D100080629A603B4B1B78FB73FA7B3A491346FF
:102D20005B001344DB000B4408331B68BB60FFF7F8
:102D30003FFF0346FB80FB88BA689A4205D2002316
:102D4000BB81324B01221A704DE0FB88304A128859
:102D500092B213441A46BB68934206D92C4B1B8887
:102D6000BB812A4B00221A703DE0BB689AB2FB88F7
:102D7000D31ABB81254B01221A7034E0FA7B224919
:102D800013465B001344DB000B4408331A68FB88CE
:102D90009A420AD2FA7B1C4913465B001344DB00BB
:102DA0000B44083300221A6013E0FA7B16491346DD
:102DB0005B001344DB000B4408331968FB88FA7B83
:102DC000C91A114813465B001344DB00034408335F
:102DD0001960FA7B0C4913465B001344DB000B447B
:102DE00015331B78FB73FB7B062BC7D1BB891846B9
:102DF000FFF71EFF00BF1037BD4680BD0028004012
:102E00002C1C00207C1B0020EC1A0020841B0020BE
:102E10008A1B002080B58AB000AFEFF310837B617E
:102E20007B697B6272B600BF594B1B68CA225A622B
:102E3000574B1B6853225A62554B1B689A68544B78
:102E40001B6822F480629A60524B1B7887F823300B
:102E500097F82320504913465B001344DB000B44D2
:102E60000C331B78DBB2022B6ED197F823204A4932
:102E700013465B001344DB000B441B68FB6197F8AF
:102E80002320454913465B001344DB000B441033F9
:102E90001B68BB61414B1B78DBB2002B4CD097F811
:102EA00023203D4913465B001344DB000B440D33E4
:102EB0001B78DBB2012B24D197F82330012118466F
:102EC000FFF7F2FD7B6A3B613B6983F3108800BF2B
:102ED00097F82320304913465B001344DB000B4472
:102EE00004331A6897F823301146184600F032FA76
:102EF000274B1B68CA225A62254B1B6853225A6211
:102F000012E07B6AFB60FB6883F3108800BF97F8D0
:102F10002330184600F09AF91D4B1B68CA225A62EA
:102F20001B4B1B6853225A6297F82330FA691946E3
:102F3000B86900F095FA22E0FFF7D2FE7B6ABB6029
:102F4000BB6883F310881AE000BF114B1B68DB6875
:102F500003F00403002BF8D00D4B1B68DB68DAB2DA
:102F60000B4B1B6862F49062DA600D4B4FF4002249
:102F7000DA607B6A7B607B6883F3108800BF044B58
:102F80001B68FF225A6200BF2837BD4680BD00BFC4
:102F90002C1C00207C1B0020EC1A0020841B00202D
:102FA0000008005880B588B000AF03463960FB7157
:102FB0005E4B1B68CA225A625C4B1B6853225A62E2
:102FC0005B4B9B685A4A43F020039360584B9B68C5
:102FD000DBB203F00703DBB2C3F10403DAB2554BF3
:102FE0001A70534B1B6903F4FE034FF4FE023A615F
:102FF0003A6992FAA2F2FA60FA687A617A69002A6A
:1030000001D1202203E07A69B2FA82F2D2B2D3402F
:10301000DBB20133DAB2484B1A70454B1B699BB2E5
:10302000C3F30E039BB201339AB2444B1A80434B55
:103030001B88013B404A127802FB03F3A3F5A073FF
:103040003C4A1278D340BB61BB694FF6FE72934293
:1030500004D93B4B4FF6FF721A8003E0BB699AB26A
:10306000374B1A804FF40020FFF79CFB4FF40020F1
:10307000FFF784FBFB79002B3DD1324B01221A7004
:10308000314B4FF0FF321A600023FB770CE0FA7FE0
:103090002E4913465B001344DB000B440C33002223
:1030A0001A70FB7F0133FB77FB7F052BEFD9284B91
:1030B00006221A701D4B1B689A681C4B1B6822F471
:1030C00080629A60194B1B68DB68DAB2174B1B6889
:1030D00062F49062DA601F4B4FF40022DA60032042
:1030E0000CF01AFB114B1B689A68104B1B6842F4DA
:1030F00080429A6009E00D4B1B68DB6803F4806333
:10310000002B02D003200CF0F9FA084B1B68FF22B9
:103110005A620022062103200CF0BAFA03200CF0B8
:10312000D1FA00BF2037BD4680BD00BF2C1C002057
:1031300000280040851B0020861B0020881B0020E3
:103140008A1B0020841B0020801B0020EC1A00201A
:103150007C1B00200008005880B48BB000AFF860E2
:10316000B9603B601346FB71002387F82630EFF30C
:103170001083FB61FB693B6272B600BF04E097F805
:103180002630013387F8263097F82630052B0CD8E7
:1031900097F826202C4913465B001344DB000B44B0
:1031A0000C331B78DBB2002BE9D197F82630062BC5
:1031B00038D097F82620244913465B001344DB00DF
:1031C0000B440C3301221A703B6ABB61BB6983F369
:1031D000108800BF97F826201B4913465B00134454
:1031E000DB000B441033FA681A6097F82620164962
:1031F00013465B001344DB000B440D33FA791A705D
:1032000097F82620104913465B001344DB000B445B
:103210003A681A60BB6897F826201A70002387F86E
:10322000273008E03B6A7B617B6983F3108800BF2D
:10323000012387F8273097F8273018462C37BD46EA
:103240005DF8047B704700BFEC1A002080B586B0A3
:1032500000AF0346FB71EFF31083FB60FB687B61FB
:1032600072B600BF03200CF03BFA344B1B68CA2235
:103270005A62324B1B6853225A62FA79304913461C
:103280005B001344DB000B440C331B78DBB2022BD6
:1032900042D1FB7900211846FFF706FC294B1B7829
:1032A000FB74FB7C062B2FD1274B9B6803F48063B8
:1032B000B3F5806F07D100BF204B1B68DB6803F0BC
:1032C0000403002BF8D11D4B1B689A681B4B1B682D
:1032D00022F480629A6000BF184B1B68DB6803F021
:1032E0000403002BF8D0154B1B68DB68DAB2134BD4
:1032F0001B6862F49062DA60144B4FF40022DA60CB
:1033000003200CF009FA07E0114B1B78DBB2FA7CC2
:103310009A4201D0FFF7E4FC084B1B68FF225A6277
:1033200003200CF0CFF97B69BB60BB6883F3108886
:1033300000BF00BF1837BD4680BD00BF2C1C002059
:10334000EC1A00207C1B00200028004000080058D8
:103350007D1B002080B586B000AF03463960FB714D
:10336000FA793B4913465B001344DB000B440C33F2
:103370001B78DBB2022B03D1FB791846FFF766FFFF
:10338000EFF31083FB60FB687B6172B600BF032024
:103390000CF0A6F92F4B1B68CA225A622D4B1B68F2
:1033A00053225A62FA792A4913465B001344DB0020
:1033B0000B440C3302221A70FA79254913465B003C
:1033C0001344DB000B4408333A681A60FA79204949
:1033D00013465B001344DB000B4404333A681A6065
:1033E000FB791846FFF7B6FA03467B821A4B1B7827
:1033F0007B741A4B1B78DBB27A7C9A4202D0FFF7BF
:103400006FFC13E0FA79124913465B001344DB00AA
:103410000B44083319687B8AFA79C91A0C48134699
:103420005B001344DB00034408331960094B1B683D
:10343000FF225A6203200CF045F97B69BB60BB6830
:1034400083F3108800BF00BF1837BD4680BD00BFA2
:10345000EC1A00202C1C00207C1B00207D1B00206F
:1034600080B584B000AFF8600B467A60FB727B6871
:10347000984700BF1037BD4680BD80B485B000AF0F
:1034800078604FF0B043DA6C4FF0B0417B68134383
:10349000CB644FF0B043DA6C7B681340FB60FB6891
:1034A00000BF1437BD465DF8047B704780B485B01B
:1034B00000AF78604FF0B0439A6D4FF0B0417B6839
:1034C00013438B654FF0B0439A6D7B681340FB60EC
:1034D000FB6800BF1437BD465DF8047B704780B4BD
:1034E00083B000AF78604FF0B0439A6D7B68DB43E8
:1034F0004FF0B04113408B6500BF0C37BD465DF8FF
:10350000047B704780B59CB000AF786007F15C0326
:1035100000221A605A609A60DA601A6107F10C039F
:103520005022002118461BF0A9FA7B681B68174A35
:10353000934226D10823FB604FF440133B6307F10D
:103540000C0318460FF083FC0346002B01D000F05B
:1035500033FB0220FFF791FF4FF42053FB6512234A
:103560003B6600237B660023BB660423FB6607F1F2
:103570005C03194606480CF0F7FA4FF40000FFF719
:1035800095FF00BF7037BD4680BD00BF005C0040A6
:103590000004004880B582B000AF78607B681B688B
:1035A0000A4A93420DD14FF40000FFF798FF4FF401
:1035B000005107480CF048FC4FF4006104480CF03F
:1035C00043FC00BF0837BD4680BD00BF005C004023
:1035D0000004004880B485B000AF78604FF0B0437D
:1035E0001A6D4FF0B0417B6813430B654FF0B04349
:1035F0001A6D7B681340FB60FB6800BF1437BD4643
:103600005DF8047B7047000080B500AF064B074AA9
:103610001A6005480DF024FE0346002B01D000F08F
:10362000CBFA00BF80BD00BF8C1B0020000C0058EF
:1036300080B582B000AF78607B681B680D4A93420A
:1036400013D14FF48010FFF7C5FF002205212C2075
:103650000CF01EF82C200CF035F8002205212D204E
:103660000CF016F82D200CF02DF800BF0837BD46E1
:1036700080BD00BF000C005880B400AF00BFBD4645
:103680005DF8047B7047000080B400AFBFF34F8F3C
:1036900000BF064BDB6803F4E0620449044B1343AC
:1036A000CB60BFF34F8F00BF00BFFDE700ED00E030
:1036B0000400FA0580B483B000AF78604FF0B043E7
:1036C000D3F8903023F018024FF0B0417B681343D9
:1036D000C1F8903000BF0C37BD465DF8047B7047E1
:1036E00080B500AF0BF064FEFEF72EFC00F022F870
:1036F00000F07CF8FFF788FFFEF750FEFEF723FE90
:1037000000F098FA00F008FF00F05BFA00F0A2FD6C
:1037100000F016FEFFF7B0FF00F05AFA00F088F94B
:1037200015F05EFCFEF71EFCFEF7DAFD15F07CFCE2
:10373000FEE7000080B59AB000AF07F120034822F1
:10374000002118461BF09AF93B1D00221A605A60AE
:103750009A60DA601A615A619A610DF007FE1020D2
:10376000FFF7A8FF204B1B6823F4C0631E4A43F4F5
:10377000007313601C4B1B6803F4C0633B603B6821
:1037800007233B624FF480337B620123BB624FF41B
:103790008073FB6240233B630023FB6407F120033B
:1037A00018460EF083F90346002B01D000F004FA0E
:1037B0006F237B600223BB600023FB6000233B611F
:1037C00000237B610023BB610023FB613B1D0121C2
:1037D00018460EF0DFFC0346002B01D000F0ECF998
:1037E00000BF6837BD4680BD0004005880B594B066
:1037F00000AF3B465022002118461BF03FF94FF422
:1038000040533B604FF480437B640223BB6400233E
:10381000FB643B4618460FF01AFB0346002B01D011
:1038200000F0CAF900BF5037BD4680BD80B582B0F8
:1038300000AF00237B6000233B60002202211220A6
:1038400016F08AF978607B68002B01D1FFF71CFF26
:10385000664A7B681360664A7B681361654A7B68C9
:103860005360654A7B685360644A7B681360644AAE
:103870007B685360634A7B6893606349786817F09C
:103880001BF900220621032016F066F978607B6898
:10389000002B01D1FFF7F8FE554A7B681360574AA9
:1038A0007B6893605949786817F006F90022012176
:1038B000022016F051F978607B68002B01D1FFF7E8
:1038C000E3FE4B4A7B6853605149786817F0F4F87F
:1038D00000220621012016F03FF978607B68002B5A
:1038E00001D1FFF7D1FE424A7B689360424A7B6870
:1038F00013604849786817F0DFF80022052102209C
:1039000016F02AF978607B68002B01D1FFF7BCFE26
:10391000374A7B68D360394A7B6853603E49786890
:1039200017F0CAF800220521032016F015F9786077
:103930007B68002B01D1FFF7A7FE314A7B6813603B
:103940002E4A7B6813613549786817F0B5F8002274
:103950000421012016F000F978607B68002B01D16A
:10396000FFF792FE274A7B685360244A7B68D36046
:103970002B49786817F0A0F80021012016F03AFAD8
:1039800038603B68002B01D1FFF77EFE254938687F
:1039900017F092F800220421012016F0DDF878607B
:1039A0003B68002B01D1FFF76FFE144A7B6853611F
:1039B000104A7B6813601C49386817F07DF80120B5
:1039C00016F044F938603B68002B01D1FFF75CFE2C
:1039D000084A3B689360084A3B689360134938681B
:1039E00017F06AF800BF0837BD4680BDC81B00202D
:1039F000D41B0020E81B0020F41B0020001C00202A
:103A0000181C0020201C0020640C0208700C020806
:103A1000800C02088C0C0208980C0208A40C020806
:103A2000B00C0208C00C0208D00C0208E00C02081E
:103A300080B584B002AF00237B60FFF7F7FE404BF8
:103A400000229A603E4B06221A7100230193022342
:103A500000933B4B80223B493B4817F0AEF978601E
:103A60007B68012B01D0FFF70FFE00230193352364
:103A70000093364B4FF4B8723549364817F09DF92C
:103A800078607B68012B01D0FFF7FEFD00230193D6
:103A900034230093304B4FF480723049304817F094
:103AA0008CF978607B68012B01D0FFF7EDFD0023D6
:103AB0000193342300932B4B4FF480722A492B48F7
:103AC00017F07BF978607B68012B01D0FFF7DCFDF4
:103AD0000023019336230093254B4FF4B8722549F8
:103AE000254817F06AF978607B68012B01D0FFF751
:103AF000CBFD0023019334230093204B4FF4B87285
:103B00001F49204817F059F978607B68012B01D0D4
:103B1000FFF7BAFD00230193352300931A4B4FF4AE
:103B2000B8721A491A4817F048F978607B68012B77
:103B300001D0FFF7A9FD00BF0837BD4680BD00BF1B
:103B4000C81B0020E80C020871C10008D41B00202B
:103B5000F40C020879AD0008E81B0020FC0C0208F8
:103B60004DBE0008F41B0020080D020895BF000898
:103B7000001C0020100D020809B90008181C0020C4
:103B80001C0D020891B50008201C0020280D020819
:103B900015AC000880B582B000AF78607B681B6808
:103BA000B3F1804F01D10BF023FC786806F0FAFFE7
:103BB00000BF0837BD4680BD80B400AF72B600BFFD
:103BC000FEE780B400AF00BFBD465DF8047B7047E0
:103BD00080B400AF00BFBD465DF8047B704780B481
:103BE00000AF4FF0B043D3F890304FF0B04243F401
:103BF0000043C2F8903000BFBD465DF8047B7047BB
:103C000080B485B000AF78604FF0B0439A6D4FF04C
:103C1000B0417B6813438B654FF0B0439A6D7B686E
:103C20001340FB60FB6800BF1437BD465DF8047BA2
:103C30007047000080B500AF164B174A1A60154B4D
:103C400000225A60134B0F229A60124B47F6FF7204
:103C5000DA60104B00221A610E4B00229A610D4B64
:103C60000022DA610B4B00225A610A4810F03AF93F
:103C70000346002B01D0FFF79FFF002200210548DB
:103C800010F030FA0346002B01D0FFF795FF00BF7C
:103C900080BD00BF2C1C00200028004080B596B0DD
:103CA00000AF786007F108035022002118461AF08F
:103CB000E5FE7B681B68124A93421DD14FF40063F6
:103CC000BB604FF48073BB6407F1080318460FF024
:103CD000BEF80346002B01D0FFF76EFFFFF77FFF12
:103CE0004FF48060FFF78CFF0022052103200BF0CA
:103CF000CFFC03200BF0E6FC00BF5837BD4680BD6B
:103D00000028004080B485B000AF78604FF0B04329
:103D1000DA6C4FF0B0417B681343CB644FF0B04393
:103D2000DA6C7B681340FB60FB6800BF1437BD464C
:103D30005DF8047B704780B485B000AF78604FF0C9
:103D4000B0431A6E4FF0B0417B6813430B664FF0DF
:103D5000B0431A6E7B681340FB60FB6800BF1437EA
:103D6000BD465DF8047B704780B588B000AF7860D1
:103D700007F10C0300221A605A609A60DA601A6137
:103D80007B681B68184A93422AD14FF48050FFF792
:103D9000D2FF0120FFF7B6FF0220FFF7B3FF922307
:103DA000FB6002233B6100237B610023BB61052391
:103DB000FB6107F10C0319464FF090400BF0D4FE65
:103DC0001023FB6002233B6100237B610023BB6166
:103DD0000523FB6107F10C03194604480BF0C4FEF0
:103DE00000BF2037BD4680BD0030014000040048C0
:103DF00080B485B000AF78604FF0B0431A6D4FF0DB
:103E0000B0417B6813430B654FF0B0431A6D7B687C
:103E10001340FB60FB6800BF1437BD465DF8047BB0
:103E2000704780B500AF4FF40020FFF7E1FF00229C
:103E30000F216FF001000BF02BFC002205212E203A
:103E40000BF026FC2E200BF03DFC00BF80BD80B4A3
:103E500085B000AF78604FF0B0439A6D4FF0B0413D
:103E60007B6813438B654FF0B0439A6D7B681340BA
:103E7000FB60FB6800BF1437BD465DF8047B7047EC
:103E800080B58CB000AF78600023FB620023BB627A
:103E9000002279681C200BF0FBFB1C200BF012FCAD
:103EA0000120FFF7D4FF07F1080207F10C031146C8
:103EB00018460EF05BFB0EF02DFBF862FB6A134A0E
:103EC000A2FB03239B0C013BBB62114B4FF08042D2
:103ED0001A600F4B40F2E732DA600D4ABB6A53605A
:103EE0000B4B00221A610A4B00229A60084810F01E
:103EF00061FF0346002B04D1054810F0B3FF0346D1
:103F000000E0012318463037BD4680BD83DE1B43E9
:103F1000501C002080B400AFFEE780B400AFFEE785
:103F200080B400AFFEE780B400AFFEE780B400AF1E
:103F3000FEE780B400AF00BFBD465DF8047B70476C
:103F400080B500AFFEF766FF00BF80BD80B500AF53
:103F5000024811F006FA00BF80BD00BF8822002091
:103F600080B500AF024811F0FCF900BF80BD00BF72
:103F7000501C002080B500AF19F070FD00BF80BD5F
:103F800080B500AF19F0A0FD00BF80BD80B500AFC7
:103F90000CF050F800BF80BD80B500AF02480BF0B8
:103FA00071FC00BF80BD00BFCC1D002080B500AFFC
:103FB000002009F083FF012009F080FF00BF80BDD1
:103FC00080B400AF01231846BD465DF8047B7047FE
:103FD00080B582B000AF786039601AF0F7FD034613
:103FE00016221A604FF0FF3318460837BD4680BDD1
:103FF00080B582B000AF78604FF0FF317868FFF78E
:10400000E7FFFEE780B586B000AFF860B9607A6080
:1040100000237B610AE0AFF300800146BB685A1CB5
:10402000BA60CAB21A707B6901337B617A697B68B6
:104030009A42F0DB7B6818461837BD4680BD80B5D4
:1040400086B000AFF860B9607A6000237B6109E058
:10405000BB685A1CBA601B781846AFF300807B69B6
:1040600001337B617A697B689A42F1DB7B68184691
:104070001837BD4680BD80B483B000AF78604FF084
:10408000FF3318460C37BD465DF8047B704780B49B
:1040900083B000AF786039603B684FF400525A60DB
:1040A000002318460C37BD465DF8047B704780B48A
:1040B00083B000AF7860012318460C37BD465DF829
:1040C000047B704780B485B000AFF860B9607A6057
:1040D000002318461437BD465DF8047B7047000086
:1040E00080B586B000AF7860144A154BD31A7B6157
:1040F0007B693B61134B1B68002B02D1114B124AA9
:104100001A60104B1A687B6813443A699A4207D2C6
:104110001AF05CFD03460C221A604FF0FF3309E0F1
:10412000084B1B68FB60074B1A687B681344054A01
:104130001360FB6818461837BD4680BD0000032099
:10414000001000009C1C00200884002080B400AFF8
:10415000244BD3F88830234A43F47003C2F88830E4
:104160004FF0B0431B684FF0B04243F001031360BF
:104170004FF0B0434FF4E0229A604FF0B0431A681A
:104180004FF0B041184B13400B604FF0B043D3F8E1
:1041900094304FF0B04223F00503C2F894304FF052
:1041A000B043D3F898304FF0B04223F00103C2F887
:1041B00098304FF0B0430D4ADA604FF0B0430B4AED
:1041C0001A614FF0B0431B684FF0B04223F48023D4
:1041D00013604FF0B04300229A6100BFBD465DF806
:1041E000047B704700ED00E0FBFEF6FA00100422AD
:1041F00080B485B000AF78604FF0B043DA6C4FF018
:10420000B0417B681343CB644FF0B043DA6C7B68FA
:104210001340FB60FB6800BF1437BD465DF8047BAC
:10422000704780B485B000AF78604FF0B0431A6E2D
:104230004FF0B0417B6813430B664FF0B0431A6EEA
:104240007B681340FB60FB6800BF1437BD465DF818
:10425000047B704780B594B000AF07F134030022AF
:104260001A605A609A60DA601A615A619A613B4634
:104270003422002118461AF001FC2F4B2F4A1A60F5
:104280002D4B00225A602C4B00229A602A4B4FF68D
:10429000FF72DA60284B00221A61274B00225A6114
:1042A000254B00229A61244810F084FD0346002B20
:1042B00001D0FFF781FC204810F0F2FF0346002BED
:1042C00001D0FFF779FC60237B630023BB630023ED
:1042D000FB6300233B6400237B640023BB64002357
:1042E000FB6407F1340300221946134811F0B6F9B4
:1042F0000346002B01D0FFF75FFC00233B60002347
:104300007B600023BB600023FB6000233B614FF414
:1043100000537B610023BB6100233B633B4619468E
:10432000054811F0DFFD0346002B01D0FFF744FCE8
:1043300000BF5037BD4680BDA01C00200044014096
:1043400080B594B000AF07F1340300221A605A60C0
:104350009A60DA601A615A619A613B463422002100
:1043600018461AF08BFB2F4B2F4A1A602D4B002258
:104370005A602C4B00229A602A4B4FF6FF72DA608B
:10438000284B00221A61274B00225A61254B00223C
:104390009A61244810F00EFD0346002B01D0FFF770
:1043A0000BFC204810F07CFF0346002B01D0FFF7E8
:1043B00003FC60237B630023BB630023FB630023B8
:1043C0003B6400237B640023BB640023FB6407F190
:1043D000340300221946134811F040F90346002B1C
:1043E00001D0FFF7E9FB00233B6000237B60002343
:1043F000BB600023FB6000233B614FF400537B61F3
:104400000023BB6100233B633B461946054811F07E
:1044100069FD0346002B01D0FFF7CEFB00BF5037EC
:10442000BD4680BDEC1C00200048014080B588B02E
:1044300000AF786007F10C0300221A605A609A609E
:10444000DA601A617B681B68174A93421FD14FF4E8
:104450000030FFF7E6FE1020FFF7CAFE0123FB60E5
:1044600002233B6100237B610023BB610E23FB61C0
:1044700007F10C0319460D480BF076FB00220521CD
:1044800019200BF005F919200BF01CF908E07B68E6
:104490001B68074A934203D14FF48020FFF7C1FE07
:1044A00000BF2037BD4680BD0044014000100048D9
:1044B0000048014080B485B000AF78604FF0B04351
:1044C000DA6C4FF0B0417B681343CB644FF0B043DC
:1044D000DA6C7B681340FB60FB6800BF1437BD4695
:1044E0005DF8047B704780B485B000AF78604FF012
:1044F000B0431A6E4FF0B0417B6813430B664FF028
:10450000B0431A6E7B681340FB60FB6800BF143732
:10451000BD465DF8047B704780B500AF224B234A4F
:104520001A60214B4FF4E1325A601F4B00229A600F
:104530001D4B0022DA601C4B00221A611A4B0C2220
:104540005A61194B00229A61174B0022DA61164B0F
:1045500000221A62144B00225A62134B00229A6204
:10456000114811F08DFD0346002B01D0FFF724FB0D
:1045700000210D4812F04EFA0346002B01D0FFF740
:104580001BFB0021084812F083FA0346002B01D0E0
:10459000FFF712FB044812F004FA0346002B01D087
:1045A000FFF70AFB00BF80BD381D00200038014026
:1045B00080B59CB000AF786007F15C0300221A6000
:1045C0005A609A60DA601A6107F10C0350220021E8
:1045D00018461AF053FA7B681B682A4A93424DD159
:1045E0000123FB6000237B6207F10C0318460EF0E9
:1045F0002EFC0346002B01D0FFF7DEFA4FF480407B
:10460000FFF771FF0220FFF755FFC023FB65022370
:104610003B6601237B660323BB660723FB6607F12A
:104620005C03194618480BF09FFA184B184A1A6099
:10463000164B0F225A60154B10229A60134B002222
:10464000DA60124B80221A61104B00225A610F4B24
:1046500000229A610D4B0022DA610C4B00221A6293
:104660000A480BF067F80346002B01D0FFF7A4FAC5
:104670007B68064ADA67054A7B68936200BF703739
:10468000BD4680BD0038014000040048CC1D00201C
:104690004404024080B584B000AF786039600023E4
:1046A000FB733968786804F0CFFD0346FB7397F914
:1046B0000F3018461037BD4680BD80B584B000AFBE
:1046C000786039600023FB733968786801F04FFC2B
:1046D0000346FB7397F90F3018461037BD4680BD6F
:1046E000B0B594B000AF7860002387F84F3097F9E9
:1046F0004F30002B07D100228821786804F064FF36
:10470000034687F84F307B68002283F8F0207B68EF
:104710004FF47A72A3F84E217B684FF4C872A3F865
:1047200050217B68714AC3F854217B68704AC3F8F2
:10473000D4207B6800221A6207F1080319467868C2
:1047400000F05AFA034687F84F3097F94F30002BA4
:1047500012D100233B7200237B727B6803F11004AB
:1047600007F108050FCD0FC40FCD0FC40FCD0FC437
:1047700095E80F0084E80F007B686422A3F83421D9
:104780007B684FF46172A3F836217B684FF4FA72AC
:10479000A3F838217B684FF42062A3F83A217B68A4
:1047A000012283F84C210023BB6414E097F94F30B9
:1047B000002B14D1BB6C9BB201221946786800F023
:1047C00065FD03461A4697F84F30134387F84F307C
:1047D000BB6C0133BB64BB6C052BE7DD00E000BFA5
:1047E00097F94F30002B07D100220221786800F0A2
:1047F0004DFD034687F84F3097F94F30002B07D116
:1048000000220321786800F041FD034687F84F300D
:1048100097F94F30002B07D100220421786800F06F
:1048200035FD034687F84F3097F94F30002B07D1FD
:1048300000220521786800F029FD034687F84F30F3
:1048400097F94F30002B08D14FF49012002178686F
:1048500000F0CCFD034687F84F3097F94F30002B1E
:1048600008D14FF480420121786800F0BFFD034673
:1048700087F84F3097F94F30002B08D14FF40C12C6
:104880000221786800F0B2FD034687F84F3097F9AF
:104890004F30002B07D100220321786800F0A6FDDD
:1048A000034687F84F3097F94F30002B0FD17B68C4
:1048B000FF2283F83021FF220121786804F084FE72
:1048C000034687F84F307B68012283F8322197F93D
:1048D0004F30002B03D17B68002283F8152197F914
:1048E0004F3018465037BD46B0BD00BF856B010044
:1048F000A4700900B0B59EB002AF7860002387F8BD
:104900006F3007F11C034022002118461AF0B6F858
:1049100000237B8300237B76002387F86730002306
:104920003B6600233B7600237B61002387F85F30E2
:104930000121786802F06EFA034687F86F307B68D1
:1049400093F813313B667B6893F8143187F85F3036
:1049500097F85F30012B0DD897F85F30012B02D10B
:104960003B6E202B06D897F85F30002B0ED13B6EA4
:104970000C2B0BD907F1180207F1140319467868BC
:1049800001F0F0FC034687F86F3009E097F85F30DC
:104990001A46396E786801F0F1FE034687F86F30E9
:1049A000944BBB6697F96F30002B0FD17B6893F85F
:1049B0004C3187F8673097F86730002B04D17B685B
:1049C000D3F84831BB6601E08A4BBB6697F96F307C
:1049D000002B06D1B96E786803F0C4FD034687F852
:1049E0006F3097F96F30002B0AD100230093042316
:1049F00000220021786801F0EBF8034687F86F3059
:104A000097F96F30002B21D10122FF21786804F043
:104A1000DBFD034687F86F3007F11A031A4684213D
:104A2000786804F05DFD03461A4697F86F3013432B
:104A300087F86F300022FF21786804F0C5FD034637
:104A40001A4697F86F30134387F86F3097F96F3035
:104A5000002B05D17B8B1B011A467B68C3F8D42041
:104A600097F96F30002B08D107F11C0319467868BD
:104A700000F0C2F8034687F86F3097F96F30002BCB
:104A800010D107F119031946786800F084F903463C
:104A900087F86F3097F96F30002B03D17A7E7B68EF
:104AA00083F8312197F96F30002B0ED17B6803F129
:104AB000100407F11C050FCD0FC40FCD0FC40FCD8F
:104AC0000FC495E80F0084E80F0097F96F30002BB2
:104AD00011D107F119031A460121786804F079FC15
:104AE000034687F86F3097F96F30002B03D17A7E39
:104AF0007B6883F8302197F96F30002B07D10022B3
:104B00000021786800F0BCF9034687F86F3097F908
:104B10006F30002B07D100220221786800F0B0F935
:104B2000034687F86F3097F96F30002B03D17B680D
:104B3000032283F8322197F96F30002B09D107F156
:104B400013031A460021786800F082F9034687F8BB
:104B50006F3097F96F30002B03D1FA7C7B6883F8B4
:104B6000E82097F96F30002B09D107F113031A469B
:104B70000121786800F06CF9034687F86F3097F9E7
:104B80006F30002B03D1FA7C7B6883F8E02097F923
:104B90006F30002B09D107F10C031A460321786806
:104BA00000F0B8FA034687F86F3097F96F30002BA2
:104BB00003D1FA687B68C3F8E42097F96F30002BC3
:104BC00009D107F10C031A460421786800F0A2FA13
:104BD000034687F86F3097F96F30002B03D1FA68DE
:104BE0007B68C3F8DC2097F96F3018467037BD46F4
:104BF000B0BD00BFB812002080B584B000AF7860AF
:104C000039600023FB733B681946786800F0B0F800
:104C10000346FB7397F90F30002B07D13B6808332D
:104C20001946786800F0B6FA0346FB7397F90F301F
:104C3000002B02D13B6800221A7397F90F30002B2A
:104C400007D13B6810331946786800F0ECFA034648
:104C5000FB7397F90F30002B07D13B6814331946CB
:104C60007868FFF72AFD0346FB7397F90F30002B96
:104C700034D10023BB602AE097F90F30002B2AD1F2
:104C8000BB6899B2BB6808339B003A68134404338D
:104C90001A46786800F00CFC03461A46FB7B134367
:104CA000FB7397F90F30002B17D1BB6899B2BB6823
:104CB00018333A6813441A46786800F073FB0346C9
:104CC0001A46FB7B1343FB73BB680133BB60BB68B5
:104CD000052BD1DD02E000BF00E000BF97F90F30E7
:104CE000002B07D13B683C331946786800F06EFC16
:104CF0000346FB7397F90F30002B07D13B68043351
:104D00001946786800F079F80346FB7397F90F307D
:104D100018461037BD4680BD80B485B000AF7860BE
:104D20000B46FB700023FB73FB78152B8CBF012215
:104D30000022D2B2002A0FD10C4A22FA03F303F068
:104D40000103002B14BF01230023DBB2002B03D08F
:104D50007B68FA781A7401E0F823FB7397F90F3037
:104D600018461437BD465DF8047B70470B003000D1
:104D700080B485B000AF786039600023FB737B6836
:104D80001A7C3B681A7097F90F3018461437BD46E5
:104D90005DF8047B704780B584B000AF78603960FF
:104DA0000023FB733A680921786804F012FB03467C
:104DB000FB7397F90F30002B06D13B681B7803F08B
:104DC0000103DAB23B681A7097F90F3018461037B2
:104DD000BD4680BD80B584B000AF786039600023E7
:104DE000FB733968786803F02CFA0346FB7397F974
:104DF0000F3018461037BD4680BD80B584B000AF77
:104E0000786039600023FB733968786803F0F9FA39
:104E10000346FB7397F90F3018461037BD4680BD27
:104E200080B584B000AF78600B46FB701346BB7052
:104E30000023FB73BA78FB781946786802F043FFC9
:104E40000346FB7397F90F3018461037BD4680BDF7
:104E500080B586B000AFF8600B467A60FB72002325
:104E6000FB75FB7A7A681946F86803F0B3F90346D4
:104E7000FB7597F9173018461837BD4680BD0000FE
:104E800080B586B000AF78600B46FB701346BB70F0
:104E90000023FB750023FB730023BB7507F10F0391
:104EA0001A460121786804F094FA0346FB75FB7BEF
:104EB000BB7597F91730002B59D1BB78012B2BD13B
:104EC000FB78042B25D801A252F823F0E14E00080C
:104ED000EB4E0008F54E0008FF4E0008094F000891
:104EE000BB7D43F01003BB7541E0BB7D43F028035D
:104EF000BB753CE0BB7D43F00403BB7537E0BB7D75
:104F000043F04003BB7532E0BB7D63F07F03BB75AC
:104F10002DE0FC23FB752AE0FB78042B25D801A2A9
:104F200052F823F0394F0008434F00084D4F000856
:104F3000574F0008614F0008BB7D23F01003BB757D
:104F400015E0BB7D23F02803BB7510E0BB7D23F08B
:104F50000403BB750BE0BB7D23F04003BB7506E08B
:104F6000BB7D03F07F03BB7501E0FC23FB75FB7B7E
:104F7000BA7D9A421ED097F91730002B07D1BB7D1E
:104F80001A460121786804F01FFB0346FB7597F968
:104F90001730002B03D17B68BA7D83F8302197F955
:104FA0001730002B06D17B685B693B6139697868F3
:104FB000FFF710FF97F9173018461837BD4680BD28
:104FC00080B487B000AFF8607B600B46FB7213467D
:104FD000BB720023FB757B6800221A70FB7A042BDE
:104FE00036D801A252F823F0FD4F00080F500008F8
:104FF000215000083350000845500008BB7A1B11AF
:10500000DBB203F00103DAB27B681A7022E0BB7AEC
:10501000DB10DBB203F00103DAB27B681A7019E02F
:10502000BB7A9B10DBB203F00103DAB27B681A7023
:1050300010E0BB7A9B11DBB203F00103DAB27B68AC
:105040001A7007E0BB7ADB09DAB27B681A7001E0FC
:10505000FC23FB7597F9173018461C37BD465DF8E1
:10506000047B704780B584B000AF7860396000235E
:10507000FB730023BB7307F10E031A460121786806
:1050800004F0A7F90346FB7397F90F30002B07D103
:10509000BA7B3B6800217868FFF792FF0346FB73F9
:1050A00097F90F30002B08D1BA7B3B6802330121FE
:1050B0007868FFF785FF0346FB7397F90F30002BE5
:1050C00008D1BA7B3B68013302217868FFF778FF8B
:1050D0000346FB7397F90F30002B08D1BA7B3B686E
:1050E000033303217868FFF76BFF0346FB7397F9DF
:1050F0000F30002B08D1BA7B3B6804330421786859
:10510000FFF75EFF0346FB7397F90F301846103721
:10511000BD4680BD80B588B000AFF8600B467A60B0
:10512000FB720023FB770023BB6100237B6107F147
:105130001002FB7A1946F86802F0F0FB0346FB7791
:1051400097F91F30002B1CD13B69114AA2FB0323A6
:105150009B09BB613A69BB694FF47A7101FB03F3A8
:10516000D31A7B61BB6919047A6913461B049B1A25
:1051700003F5FA73064AA2FB03239B09CA187B684E
:105180001A6097F91F3018462037BD4680BD00BF12
:10519000D34D621080B584B000AF786039600023D1
:1051A000FB7307F10C031A46F821786804F098F9AC
:1051B0000346FB7397F90F30002B08D107F1080362
:1051C0001A460421786804F0C3F90346FB7397F983
:1051D0000F30002B0CD1BB89002B05D0BB68BA89DE
:1051E000B3FBF2F23B681A603B681A687B689A610D
:1051F00097F90F3018461037BD4680BD80B485B092
:1052000000AF786039600023FB737B681B7FBB7342
:105210003B68BA7B1A7097F90F3018461437BD46B1
:105220005DF8047B704780B586B000AF7860396068
:105230000023FB7507F10E031A462021786804F05D
:105240004FF90346FB7597F91730002B18D1FB89EE
:10525000002B09D17B681B6A3B613B683A691A6085
:105260007B6800221A770BE0FB89DB003B613B681F
:105270003A691A607B683A691A627B6801221A7778
:1052800097F9173018461837BD4680BD80B586B0EF
:1052900000AF78600B467B8013467B700023FB7564
:1052A00000233B610023FB730023BB737B88052B2A
:1052B00002D9FC23FB755BE07B78002B06D1002331
:1052C0003B610023FB730123BB730AE07B887A6890
:1052D0000C339B0013445B683B610023BB730123C9
:1052E000FB737B88052B41D801A252F823F000BF45
:1052F00009530008135300082953000833530008CA
:105300003D530008555300087B68FA7B83F828203A
:105310002EE03B695B0A9BB21A464421786804F090
:1053200077F90346FB7523E07B68FA7B83F82A2034
:105330001EE07B68FA7B83F82B2019E0BB7B5B00C7
:105340007B737B7BFE226021786804F08BF9034637
:10535000FB750DE0BB7B1B017B737B7BEF22602128
:10536000786804F07FF90346FB7501E0FC23FB75C8
:1053700097F91730002B0FD17B78002B06D17B8853
:105380007A681344002283F8282005E07B887A6835
:105390001344012283F8282097F91730184618374C
:1053A000BD4680BD80B487B000AFF8600B467A6020
:1053B0007B810023FB757B89052B05D9FC23FB75BD
:1053C0007B6800221A7008E07B89FA68134493F81E
:1053D0002830BB757B68BA7D1A7097F9173018466C
:1053E0001C37BD465DF8047B7047000080B586B071
:1053F00000AFF8600B467A607B810023FB757B89E8
:10540000FA68134493F82830BB75BB7D002B07D195
:105410007B89FA680C339B0013447A685A6040E039
:105420007B89052B30D801A252F823F0455400089F
:105430004D540008635400086B540008735400086E
:1054400073540008FB687A685A631FE07B685B0A44
:105450009BB21A464421F86804F0DAF80346FB755B
:1054600014E0FB687A68DA6310E0FB687A681A6413
:105470000CE07B685B0A9BB21A466421F86804F072
:10548000C7F80346FB7501E0FC23FB7597F917305D
:10549000002B06D17B89FA680C339B0013447A6891
:1054A0005A6097F9173018461837BD4680BD00BFBF
:1054B00080B588B000AFF8600B467A607B8100232E
:1054C000FB770023BB777B89052B47D801A252F8D5
:1054D00023F000BFED540008F95400081F550008E0
:1054E0002B5500083755000837550008FB685B6BE3
:1054F000BB610023BB7733E007F116031A46442152
:10550000F86803F0EDFF0346FB7797F91F30002B97
:1055100002D1FB8A5B02BB610123BB7720E0FB6801
:10552000DB6BBB610023BB771AE0FB681B6CBB61C4
:105530000023BB7714E007F116031A466421F868CC
:1055400003F0CEFF0346FB7797F91F30002B02D103
:10555000FB8A5B02BB610023BB7701E0FC23FB7786
:1055600097F91F30002B2AD1BB7F012B24D1BB69B7
:10557000002B10D17B89FA680C339B0013445B68C5
:10558000BB617B68BA691A607B89FA6813440022A0
:1055900083F8282013E07B68BA691A607B89FA686F
:1055A0000C339B001344BA695A607B89FA68134430
:1055B000012283F8282002E07B68BA691A6097F913
:1055C0001F3018462037BD4680BD00BF80B584B06F
:1055D00000AF786039600023FB7307F10E031A46B1
:1055E0000121786803F0F5FE0346FB7397F90F304D
:1055F000002B0ED1BA7B7B6883F83021BB7B5BB27A
:10560000002B03DA3B6801221A7002E03B6800229B
:105610001A7097F90F30002B04D13B681A787B6819
:1056200083F84C2097F90F3018461037BD4680BDDF
:1056300080B584B000AF78600023FB7307F10E03E0
:1056400019467868FFF794FB0346FB7397F90F3010
:10565000002B07D1BB7B002B04D1786800F098F8B1
:105660000346FB7397F90F30002B04D1786801F0E3
:1056700007FB0346FB7397F90F30002B06D1BB7B6A
:10568000002B03D17B68032283F8322197F90F3076
:1056900018461037BD4680BD80B586B000AFF860B3
:1056A000B9607A600023FB7501237A68B968F868ED
:1056B00001F0A9FA0346FB7597F917301846183719
:1056C000BD4680BD80B586B000AF78600B46FB70EC
:1056D0000023FB757B6893F8DA30BB75BB7D012B2B
:1056E00005D0BB7D022B02D0BB7D032B47D107F138
:1056F0000C0307F110020121786800F08BFB0346D0
:10570000FB753B69B3F57F0F03D8FB68B3F57F0FDB
:1057100035D997F91730002B31D1FB78002B06D003
:105720001A49786802F01EFF0346FB7527E0042241
:10573000FF21786803F048FF03461A46FB7D1343B8
:10574000FB7500227021786803F03EFF03461A467D
:10575000FB7D1343FB750022FF21786803F034FFC3
:1057600003461A46FB7D1343FB75002280217868AF
:1057700003F02AFF03461A46FB7D1343FB7597F996
:10578000173018461837BD4680BD00BFAC13002047
:1057900080B586B000AF78600023FB750123FB73F2
:1057A00007F10E0319467868FFF7E2FABB7B032B7B
:1057B00052D0032B6ADC002B02D0012B32D065E0E3
:1057C00001220021786803F0FFFE0346FB75FB7B96
:1057D0007B7397F91730002B5BD100233B613B694A
:1057E000002B08D007F10D031A460021786803F05A
:1057F000F0FD0346FB753B6901333B617A7BFB7B24
:105800001340DBB2FA7B9A4206D197F91730002B8E
:1058100002D13B69C72BE2D93B69C72B39D9F923A0
:10582000FB7536E097F91730002B05D10121786818
:10583000FFF748FF0346FB7502220021786803F05A
:10584000C3FE0346FB7597F91730002B23D17B6805
:10585000042283F832211EE097F91730002B05D17E
:1058600001217868FFF72EFF0346FB750422002113
:10587000786803F0A9FE0346FB7597F91730002BF3
:105880000BD17B68042283F8322106E0F823FB75F4
:1058900004E000BF02E000BF00E000BF97F917304E
:1058A00018461837BD4680BD80B584B000AF78601B
:1058B00039600023FB737B6893F8DA30BB73BB7BE2
:1058C000042B12D107F108031946786800F018FB81
:1058D0000346FB73BB68042B03D13B6801221A709B
:1058E0001CE03B6800221A7018E007F10D031A460D
:1058F0001421786803F06DFD0346FB7397F90F30B0
:10590000002B0BD17B7B03F00103002B03D03B6802
:1059100001221A7002E03B6800221A7097F90F30DA
:1059200018461037BD4680BDB0B596B002AF78605E
:105930003960002387F84F3007F128020C23142127
:10594000786803F0A1FD034687F84F3097F94F3090
:10595000002B40F0D1803B6800229A753B68002202
:105960001A6097F832309BB21B029AB297F8333024
:105970009BB21344A7F84C303B6800225A6097F85A
:105980002E309BB21B029AB297F82F309BB2134471
:105990009BB25B027B643B687A6CDA6097F83030CC
:1059A0009BB21B029AB297F831309BB21344A7F80E
:1059B0004230B7F842305B021A463B681A6197F8EA
:1059C0002A309BB21B029AB297F82B309BB2134439
:1059D000A7F840303B68B7F840209A8297F8283003
:1059E00087F83F307B68B3F84E31BB877B6893F80C
:1059F000313187F83B30BB8FB3F57A7F46D0BB8F10
:105A0000B7F84C2002FB03F303F5FA73574A82FB05
:105A100003129211DB17D31AA7F84C307B681B6A6C
:105A20003B877B681B7F87F8373097F83730002B30
:105A30002CD03B8FB7F8402002FB03F31A127B6C8B
:105A40009A420DD197F83B30002B04D042F2B82394
:105A5000A7F84A3016E048F6E023A7F84A3011E0EC
:105A6000B7F84C307A6C03FB02F23B8FB7F840106A
:105A700001FB03F31B1219467B6C5B1AB2FBF3F3B9
:105A8000A7F84A30B7F84A30A7F84C3097F83B30BF
:105A9000002B0DD0B7F84C309B089AB23B681A81A6
:105AA000B7F84C30DBB29B01DAB23B68DA7506E03E
:105AB0003B68B7F84C201A813B680022DA75B7F8CA
:105AC000402097F83F1007F1360301933B6800939D
:105AD00013467A6C786803F0A7F903461A4697F8DC
